{
  "contractName": "FeeManager",
  "abi": [
    {
      "inputs": [
        {
          "internalType": "address",
          "name": "_governance",
          "type": "address"
        },
        {
          "internalType": "address",
          "name": "_daoPool",
          "type": "address"
        }
      ],
      "payable": false,
      "stateMutability": "nonpayable",
      "type": "constructor"
    },
    {
      "constant": true,
      "inputs": [],
      "name": "FEE_DENOMINATOR",
      "outputs": [
        {
          "internalType": "uint256",
          "name": "",
          "type": "uint256"
        }
      ],
      "payable": false,
      "stateMutability": "view",
      "type": "function"
    },
    {
      "constant": true,
      "inputs": [],
      "name": "FEE_MOLECULAR",
      "outputs": [
        {
          "internalType": "uint256",
          "name": "",
          "type": "uint256"
        }
      ],
      "payable": false,
      "stateMutability": "view",
      "type": "function"
    },
    {
      "constant": true,
      "inputs": [],
      "name": "daoPool",
      "outputs": [
        {
          "internalType": "contract NoMintRewardPool",
          "name": "",
          "type": "address"
        }
      ],
      "payable": false,
      "stateMutability": "view",
      "type": "function"
    },
    {
      "constant": true,
      "inputs": [],
      "name": "governance",
      "outputs": [
        {
          "internalType": "address",
          "name": "",
          "type": "address"
        }
      ],
      "payable": false,
      "stateMutability": "view",
      "type": "function"
    },
    {
      "constant": true,
      "inputs": [
        {
          "internalType": "address",
          "name": "account",
          "type": "address"
        }
      ],
      "name": "isGovernance",
      "outputs": [
        {
          "internalType": "bool",
          "name": "",
          "type": "bool"
        }
      ],
      "payable": false,
      "stateMutability": "view",
      "type": "function"
    },
    {
      "constant": false,
      "inputs": [
        {
          "internalType": "address",
          "name": "_governance",
          "type": "address"
        }
      ],
      "name": "setGovernance",
      "outputs": [],
      "payable": false,
      "stateMutability": "nonpayable",
      "type": "function"
    },
    {
      "constant": false,
      "inputs": [
        {
          "internalType": "address",
          "name": "_daoPool",
          "type": "address"
        }
      ],
      "name": "setDaoPool",
      "outputs": [],
      "payable": false,
      "stateMutability": "nonpayable",
      "type": "function"
    },
    {
      "constant": true,
      "inputs": [
        {
          "internalType": "address",
          "name": "initiator",
          "type": "address"
        },
        {
          "internalType": "uint256",
          "name": "amount",
          "type": "uint256"
        }
      ],
      "name": "getFee",
      "outputs": [
        {
          "internalType": "uint256",
          "name": "",
          "type": "uint256"
        }
      ],
      "payable": false,
      "stateMutability": "view",
      "type": "function"
    },
    {
      "constant": false,
      "inputs": [
        {
          "internalType": "uint256",
          "name": "molecular",
          "type": "uint256"
        }
      ],
      "name": "setFeeMolecular",
      "outputs": [],
      "payable": false,
      "stateMutability": "nonpayable",
      "type": "function"
    }
  ],
  "bytecode": "0x6080604052600a60025534801561001557600080fd5b506040516109063803806109068339818101604052604081101561003857600080fd5b508051602090910151816001600160a01b03811661009d576040805162461bcd60e51b815260206004820152601d60248201527f676f7665726e616e63652073686f756c646e277420626520656d707479000000604482015290519081900360640190fd5b600080546001600160a01b0319166001600160a01b03928316179055811661010c576040805162461bcd60e51b815260206004820152601b60248201527f64616f20706f6f6c2073686f756c646e277420626520656d7074790000000000604482015290519081900360640190fd5b600180546001600160a01b0319166001600160a01b0392909216919091179055506107ca8061013c6000396000f3fe608060405234801561001057600080fd5b50600436106100935760003560e01c80635aa6e675116100665780635aa6e6751461012a578063ab033ea914610132578063b9937b6014610158578063d73792a914610175578063dee1f0e41461017d57610093565b80631af459201461009857806328a5c00a146100c057806333e0ff5d146100da5780634edeb834146100fe575b600080fd5b6100be600480360360208110156100ae57600080fd5b50356001600160a01b03166101b7565b005b6100c861027f565b60408051918252519081900360200190f35b6100e2610285565b604080516001600160a01b039092168252519081900360200190f35b6100c86004803603604081101561011457600080fd5b506001600160a01b038135169060200135610294565b6100e2610448565b6100be6004803603602081101561014857600080fd5b50356001600160a01b0316610457565b6100be6004803603602081101561016e57600080fd5b5035610509565b6100c8610559565b6101a36004803603602081101561019357600080fd5b50356001600160a01b031661055f565b604080519115158252519081900360200190f35b6101c03361055f565b610202576040805162461bcd60e51b815260206004820152600e60248201526d4e6f7420676f7665726e616e636560901b604482015290519081900360640190fd5b6001600160a01b03811661025d576040805162461bcd60e51b815260206004820152601b60248201527f64616f20706f6f6c2073686f756c646e277420626520656d7074790000000000604482015290519081900360640190fd5b600180546001600160a01b0319166001600160a01b0392909216919091179055565b60025481565b6001546001600160a01b031681565b60006001600160a01b0383166102f1576040805162461bcd60e51b815260206004820152601c60248201527f696e69746961746f722073686f756c646e277420626520656d70747900000000604482015290519081900360640190fd5b60008211610346576040805162461bcd60e51b815260206004820152601860248201527f616d6f756e742073686f756c646e2774206265207a65726f0000000000000000604482015290519081900360640190fd5b600154604080516370a0823160e01b81526001600160a01b038681166004830152915160009392909216916370a0823191602480820192602092909190829003018186803b15801561039757600080fd5b505afa1580156103ab573d6000803e3d6000fd5b505050506040513d60208110156103c157600080fd5b5051905069d3c21bcecceda100000081101561043b5761043661271061042a69d3c21bcecceda100000061042a60025461041e6104118869d3c21bcecceda100000061057390919063ffffffff16565b8a9063ffffffff6105bc16565b9063ffffffff6105bc16565b9063ffffffff61061516565b61043e565b60005b9150505b92915050565b6000546001600160a01b031681565b6104603361055f565b6104a2576040805162461bcd60e51b815260206004820152600e60248201526d4e6f7420676f7665726e616e636560901b604482015290519081900360640190fd5b6001600160a01b0381166104e75760405162461bcd60e51b81526004018080602001828103825260218152602001806107546021913960400191505060405180910390fd5b600080546001600160a01b0319166001600160a01b0392909216919091179055565b6105123361055f565b610554576040805162461bcd60e51b815260206004820152600e60248201526d4e6f7420676f7665726e616e636560901b604482015290519081900360640190fd5b600255565b61271081565b6000546001600160a01b0390811691161490565b60006105b583836040518060400160405280601e81526020017f536166654d6174683a207375627472616374696f6e206f766572666c6f770000815250610657565b9392505050565b6000826105cb57506000610442565b828202828482816105d857fe5b04146105b55760405162461bcd60e51b81526004018080602001828103825260218152602001806107756021913960400191505060405180910390fd5b60006105b583836040518060400160405280601a81526020017f536166654d6174683a206469766973696f6e206279207a65726f0000000000008152506106ee565b600081848411156106e65760405162461bcd60e51b81526004018080602001828103825283818151815260200191508051906020019080838360005b838110156106ab578181015183820152602001610693565b50505050905090810190601f1680156106d85780820380516001836020036101000a031916815260200191505b509250505060405180910390fd5b505050900390565b6000818361073d5760405162461bcd60e51b81526020600482018181528351602484015283519092839260449091019190850190808383600083156106ab578181015183820152602001610693565b50600083858161074957fe5b049594505050505056fe6e657720676f7665726e616e63652073686f756c646e277420626520656d707479536166654d6174683a206d756c7469706c69636174696f6e206f766572666c6f77a265627a7a723158201e22b1b34f4ce0b5cbdb0557e787efd5caa3e4c4cf8366c2576c806364e10b2e64736f6c63430005100032",
  "source": "\n// SPDX-License-Identifier: MIT\npragma solidity ^0.5.0;\n\nimport './dependency.sol';\nimport './Governable.sol';\nimport './RewardPool.sol';\n\ncontract FeeManager is Governable {\n    using SafeMath for uint256;\n    using SafeERC20 for IERC20;\n\n    NoMintRewardPool public daoPool;\n    uint256 public FEE_MOLECULAR = 10;\n    uint256 constant public FEE_DENOMINATOR = 10000; // Handling fee FEE_MOLECULAR / FEE_DENOMINATOR\n    uint256 constant internal FREE_QUOTA = 1e24; // 1 million in dao pool free\n\n    constructor(address _governance, address _daoPool) public Governable(_governance) {\n        require(_daoPool != address(0), \"dao pool shouldn't be empty\");\n        daoPool = NoMintRewardPool(_daoPool);\n    }\n\n    function setDaoPool(address _daoPool) external onlyGovernance {\n        require(_daoPool != address(0), \"dao pool shouldn't be empty\");\n        daoPool =  NoMintRewardPool(_daoPool);\n    }\n\n    function getFee(address initiator, uint256 amount) external view returns (uint256) {\n        require(initiator != address(0), \"initiator shouldn't be empty\");\n        require(amount > 0, \"amount shouldn't be zero\");\n\n        uint256 balance = daoPool.balanceOf(initiator);\n\n        return balance >= FREE_QUOTA\n            ? 0 : amount.mul(FREE_QUOTA.sub(balance)).mul(FEE_MOLECULAR).div(FREE_QUOTA).div(FEE_DENOMINATOR);\n    }\n\n    function setFeeMolecular(uint256 molecular) external onlyGovernance {\n        FEE_MOLECULAR = molecular;\n    }\n}\n",
  "sourcePath": "/Users/huahua/repo/truffle/FlashLoanAdapter/contracts/FeeManager.sol",
  "compiler": {
    "name": "solc",
    "version": "0.5.16+commit.9c3226ce.Emscripten.clang"
  },
  "schemaVersion": "3.3.2",
  "updatedAt": "2021-06-10T02:54:27.123Z",
  "devdoc": {
    "methods": {}
  },
  "userdoc": {
    "methods": {}
  }
}