{
  "contractName": "FlashLoan",
  "abi": [
    {
      "inputs": [
        {
          "internalType": "address",
          "name": "_governance",
          "type": "address"
        },
        {
          "internalType": "address",
          "name": "comptroller",
          "type": "address"
        },
        {
          "internalType": "address",
          "name": "oracle",
          "type": "address"
        },
        {
          "internalType": "address",
          "name": "fHUSD",
          "type": "address"
        },
        {
          "internalType": "address",
          "name": "weth",
          "type": "address"
        }
      ],
      "payable": false,
      "stateMutability": "nonpayable",
      "type": "constructor"
    },
    {
      "anonymous": false,
      "inputs": [
        {
          "indexed": true,
          "internalType": "address",
          "name": "target",
          "type": "address"
        },
        {
          "indexed": true,
          "internalType": "address",
          "name": "initiator",
          "type": "address"
        },
        {
          "indexed": true,
          "internalType": "address",
          "name": "asset",
          "type": "address"
        },
        {
          "indexed": false,
          "internalType": "uint256",
          "name": "amount",
          "type": "uint256"
        },
        {
          "indexed": false,
          "internalType": "uint256",
          "name": "premium",
          "type": "uint256"
        }
      ],
      "name": "FlashLoan",
      "type": "event"
    },
    {
      "anonymous": false,
      "inputs": [
        {
          "indexed": true,
          "internalType": "address",
          "name": "previousOwner",
          "type": "address"
        },
        {
          "indexed": true,
          "internalType": "address",
          "name": "newOwner",
          "type": "address"
        }
      ],
      "name": "OwnershipTransferred",
      "type": "event"
    },
    {
      "anonymous": false,
      "inputs": [],
      "name": "Paused",
      "type": "event"
    },
    {
      "anonymous": false,
      "inputs": [],
      "name": "Unpaused",
      "type": "event"
    },
    {
      "payable": true,
      "stateMutability": "payable",
      "type": "fallback"
    },
    {
      "constant": true,
      "inputs": [],
      "name": "governance",
      "outputs": [
        {
          "internalType": "address",
          "name": "",
          "type": "address"
        }
      ],
      "payable": false,
      "stateMutability": "view",
      "type": "function"
    },
    {
      "constant": true,
      "inputs": [
        {
          "internalType": "address",
          "name": "account",
          "type": "address"
        }
      ],
      "name": "isGovernance",
      "outputs": [
        {
          "internalType": "bool",
          "name": "",
          "type": "bool"
        }
      ],
      "payable": false,
      "stateMutability": "view",
      "type": "function"
    },
    {
      "constant": true,
      "inputs": [],
      "name": "isOwner",
      "outputs": [
        {
          "internalType": "bool",
          "name": "",
          "type": "bool"
        }
      ],
      "payable": false,
      "stateMutability": "view",
      "type": "function"
    },
    {
      "constant": true,
      "inputs": [],
      "name": "owner",
      "outputs": [
        {
          "internalType": "address",
          "name": "",
          "type": "address"
        }
      ],
      "payable": false,
      "stateMutability": "view",
      "type": "function"
    },
    {
      "constant": false,
      "inputs": [],
      "name": "renounceOwnership",
      "outputs": [],
      "payable": false,
      "stateMutability": "nonpayable",
      "type": "function"
    },
    {
      "constant": false,
      "inputs": [
        {
          "internalType": "address",
          "name": "_governance",
          "type": "address"
        }
      ],
      "name": "setGovernance",
      "outputs": [],
      "payable": false,
      "stateMutability": "nonpayable",
      "type": "function"
    },
    {
      "constant": false,
      "inputs": [
        {
          "internalType": "address",
          "name": "newOwner",
          "type": "address"
        }
      ],
      "name": "transferOwnership",
      "outputs": [],
      "payable": false,
      "stateMutability": "nonpayable",
      "type": "function"
    },
    {
      "constant": false,
      "inputs": [
        {
          "internalType": "address",
          "name": "receiverAddress",
          "type": "address"
        },
        {
          "internalType": "address[]",
          "name": "assets",
          "type": "address[]"
        },
        {
          "internalType": "uint256[]",
          "name": "amounts",
          "type": "uint256[]"
        },
        {
          "internalType": "bytes",
          "name": "params",
          "type": "bytes"
        }
      ],
      "name": "flashLoan",
      "outputs": [],
      "payable": false,
      "stateMutability": "nonpayable",
      "type": "function"
    },
    {
      "constant": true,
      "inputs": [],
      "name": "getReservesList",
      "outputs": [
        {
          "internalType": "address[]",
          "name": "",
          "type": "address[]"
        }
      ],
      "payable": false,
      "stateMutability": "view",
      "type": "function"
    },
    {
      "constant": true,
      "inputs": [],
      "name": "FLASHLOAN_PREMIUM_TOTAL",
      "outputs": [
        {
          "internalType": "uint256",
          "name": "",
          "type": "uint256"
        }
      ],
      "payable": false,
      "stateMutability": "view",
      "type": "function"
    },
    {
      "constant": true,
      "inputs": [],
      "name": "MAX_NUMBER_RESERVES",
      "outputs": [
        {
          "internalType": "uint256",
          "name": "",
          "type": "uint256"
        }
      ],
      "payable": false,
      "stateMutability": "view",
      "type": "function"
    },
    {
      "constant": false,
      "inputs": [
        {
          "internalType": "bool",
          "name": "val",
          "type": "bool"
        }
      ],
      "name": "setPause",
      "outputs": [],
      "payable": false,
      "stateMutability": "nonpayable",
      "type": "function"
    },
    {
      "constant": true,
      "inputs": [],
      "name": "paused",
      "outputs": [
        {
          "internalType": "bool",
          "name": "",
          "type": "bool"
        }
      ],
      "payable": false,
      "stateMutability": "view",
      "type": "function"
    },
    {
      "constant": false,
      "inputs": [
        {
          "internalType": "uint256",
          "name": "flashLoanPremium",
          "type": "uint256"
        }
      ],
      "name": "setFlashLoanPremium",
      "outputs": [],
      "payable": false,
      "stateMutability": "nonpayable",
      "type": "function"
    },
    {
      "constant": false,
      "inputs": [
        {
          "internalType": "address[]",
          "name": "assets",
          "type": "address[]"
        },
        {
          "internalType": "address[]",
          "name": "fTokenAddresses",
          "type": "address[]"
        }
      ],
      "name": "initReserve",
      "outputs": [],
      "payable": false,
      "stateMutability": "nonpayable",
      "type": "function"
    },
    {
      "constant": true,
      "inputs": [
        {
          "internalType": "address",
          "name": "asset",
          "type": "address"
        }
      ],
      "name": "getReserveData",
      "outputs": [
        {
          "internalType": "address",
          "name": "",
          "type": "address"
        },
        {
          "internalType": "uint8",
          "name": "",
          "type": "uint8"
        }
      ],
      "payable": false,
      "stateMutability": "view",
      "type": "function"
    },
    {
      "constant": false,
      "inputs": [
        {
          "internalType": "address",
          "name": "_token",
          "type": "address"
        },
        {
          "internalType": "address",
          "name": "_account",
          "type": "address"
        },
        {
          "internalType": "uint256",
          "name": "amount",
          "type": "uint256"
        }
      ],
      "name": "withdrawERC20",
      "outputs": [],
      "payable": false,
      "stateMutability": "nonpayable",
      "type": "function"
    },
    {
      "constant": false,
      "inputs": [
        {
          "internalType": "address payable",
          "name": "_account",
          "type": "address"
        },
        {
          "internalType": "uint256",
          "name": "amount",
          "type": "uint256"
        }
      ],
      "name": "withdraw",
      "outputs": [],
      "payable": false,
      "stateMutability": "nonpayable",
      "type": "function"
    },
    {
      "constant": true,
      "inputs": [],
      "name": "getComptroller",
      "outputs": [
        {
          "internalType": "address",
          "name": "",
          "type": "address"
        }
      ],
      "payable": false,
      "stateMutability": "view",
      "type": "function"
    },
    {
      "constant": false,
      "inputs": [
        {
          "internalType": "address",
          "name": "comptroller",
          "type": "address"
        }
      ],
      "name": "setComptroller",
      "outputs": [],
      "payable": false,
      "stateMutability": "nonpayable",
      "type": "function"
    },
    {
      "constant": true,
      "inputs": [],
      "name": "getLiquidity",
      "outputs": [
        {
          "internalType": "uint256",
          "name": "",
          "type": "uint256"
        }
      ],
      "payable": false,
      "stateMutability": "view",
      "type": "function"
    },
    {
      "constant": true,
      "inputs": [],
      "name": "getOracle",
      "outputs": [
        {
          "internalType": "address",
          "name": "",
          "type": "address"
        }
      ],
      "payable": false,
      "stateMutability": "view",
      "type": "function"
    },
    {
      "constant": false,
      "inputs": [
        {
          "internalType": "address",
          "name": "oracle",
          "type": "address"
        }
      ],
      "name": "setOracle",
      "outputs": [],
      "payable": false,
      "stateMutability": "nonpayable",
      "type": "function"
    },
    {
      "constant": true,
      "inputs": [
        {
          "internalType": "address",
          "name": "asset",
          "type": "address"
        }
      ],
      "name": "getMaxTokenAmount",
      "outputs": [
        {
          "internalType": "uint256",
          "name": "",
          "type": "uint256"
        }
      ],
      "payable": false,
      "stateMutability": "view",
      "type": "function"
    },
    {
      "constant": true,
      "inputs": [],
      "name": "WETH",
      "outputs": [
        {
          "internalType": "address",
          "name": "",
          "type": "address"
        }
      ],
      "payable": false,
      "stateMutability": "view",
      "type": "function"
    },
    {
      "constant": false,
      "inputs": [
        {
          "internalType": "address[]",
          "name": "_targets",
          "type": "address[]"
        }
      ],
      "name": "addToWhitelist",
      "outputs": [],
      "payable": false,
      "stateMutability": "nonpayable",
      "type": "function"
    },
    {
      "constant": false,
      "inputs": [
        {
          "internalType": "address",
          "name": "_target",
          "type": "address"
        }
      ],
      "name": "removeFromWhitelist",
      "outputs": [],
      "payable": false,
      "stateMutability": "nonpayable",
      "type": "function"
    },
    {
      "constant": true,
      "inputs": [
        {
          "internalType": "address",
          "name": "_target",
          "type": "address"
        }
      ],
      "name": "isInWhitelist",
      "outputs": [
        {
          "internalType": "bool",
          "name": "",
          "type": "bool"
        }
      ],
      "payable": false,
      "stateMutability": "view",
      "type": "function"
    }
  ],
  "bytecode": "0x60806040523480156200001157600080fd5b506040516200339538038062003395833981810160405260a08110156200003757600080fd5b50805160208201516040830151606084015160809094015192939192909190846001600160a01b038116620000b3576040805162461bcd60e51b815260206004820152601d60248201527f676f7665726e616e63652073686f756c646e277420626520656d707479000000604482015290519081900360640190fd5b600b80546001600160a01b0319166001600160a01b0392909216919091179055620000dd62000188565b600c80546001600160a01b0319166001600160a01b0392831617908190556040519116906000907f8be0079c531659141344cd1fd0a4f28419497f9722a3daafe3b4186f6b6457e0908290a3600680546001600160a01b039586166001600160a01b031991821617909155600780549486169482169490941790935560088054928516928416929092179091556009805491909316911617905550600a60045560806005556200018c565b3390565b6131f9806200019c6000396000f3fe6080604052600436106101b75760003560e01c80637f649783116100ec578063ad5c46481161008a578063dee1f0e411610064578063dee1f0e4146107c6578063f2fde38b146107f9578063f3fef3a31461082c578063f8119d5114610865576101b7565b8063ad5c464814610720578063bedb86fb14610735578063d1946dbc14610761576101b7565b80638bad38dd116100c65780638bad38dd146106905780638da5cb5b146106c35780638f32d59b146106d8578063ab033ea9146106ed576101b7565b80637f649783146105cd578063833b1fce146106485780638ab1d6811461065d576101b7565b80635aa6e675116101595780635e634aa2116101335780635e634aa2146104a5578063715018a61461057057806379feab87146105855780637adbf9731461059a576101b7565b80635aa6e675146103345780635c38449e146103655780635c975abb14610490576101b7565b80631da9e7bb116101955780631da9e7bb1461023c57806335ea6a751461026657806344004cc1146102be5780635551578c14610301576101b7565b8063074b2e43146101b95780630910a510146101e057806309fd8212146101f5575b005b3480156101c557600080fd5b506101ce61087a565b60408051918252519081900360200190f35b3480156101ec57600080fd5b506101ce610881565b34801561020157600080fd5b506102286004803603602081101561021857600080fd5b50356001600160a01b03166108bf565b604080519115158252519081900360200190f35b34801561024857600080fd5b506101b76004803603602081101561025f57600080fd5b50356108e1565b34801561027257600080fd5b506102996004803603602081101561028957600080fd5b50356001600160a01b0316610931565b604080516001600160a01b03909316835260ff90911660208301528051918290030190f35b3480156102ca57600080fd5b506101b7600480360360608110156102e157600080fd5b506001600160a01b03813581169160208101359091169060400135610963565b34801561030d57600080fd5b506101ce6004803603602081101561032457600080fd5b50356001600160a01b0316610b38565b34801561034057600080fd5b50610349610dd4565b604080516001600160a01b039092168252519081900360200190f35b34801561037157600080fd5b506101b76004803603608081101561038857600080fd5b6001600160a01b038235169190810190604081016020820135600160201b8111156103b257600080fd5b8201836020820111156103c457600080fd5b803590602001918460208302840111600160201b831117156103e557600080fd5b919390929091602081019035600160201b81111561040257600080fd5b82018360208201111561041457600080fd5b803590602001918460208302840111600160201b8311171561043557600080fd5b919390929091602081019035600160201b81111561045257600080fd5b82018360208201111561046457600080fd5b803590602001918460018302840111600160201b8311171561048557600080fd5b509092509050610de3565b34801561049c57600080fd5b5061022861187c565b3480156104b157600080fd5b506101b7600480360360408110156104c857600080fd5b810190602081018135600160201b8111156104e257600080fd5b8201836020820111156104f457600080fd5b803590602001918460208302840111600160201b8311171561051557600080fd5b919390929091602081019035600160201b81111561053257600080fd5b82018360208201111561054457600080fd5b803590602001918460208302840111600160201b8311171561056557600080fd5b509092509050611885565b34801561057c57600080fd5b506101b7611a33565b34801561059157600080fd5b50610349611ac4565b3480156105a657600080fd5b506101b7600480360360208110156105bd57600080fd5b50356001600160a01b0316611ad3565b3480156105d957600080fd5b506101b7600480360360208110156105f057600080fd5b810190602081018135600160201b81111561060a57600080fd5b82018360208201111561061c57600080fd5b803590602001918460208302840111600160201b8311171561063d57600080fd5b509092509050611b84565b34801561065457600080fd5b50610349611ce0565b34801561066957600080fd5b506101b76004803603602081101561068057600080fd5b50356001600160a01b0316611cef565b34801561069c57600080fd5b506101b7600480360360208110156106b357600080fd5b50356001600160a01b0316611da0565b3480156106cf57600080fd5b50610349611e52565b3480156106e457600080fd5b50610228611e61565b3480156106f957600080fd5b506101b76004803603602081101561071057600080fd5b50356001600160a01b0316611e87565b34801561072c57600080fd5b50610349611f39565b34801561074157600080fd5b506101b76004803603602081101561075857600080fd5b50351515611f48565b34801561076d57600080fd5b50610776612006565b60408051602080825283518183015283519192839290830191858101910280838360005b838110156107b257818101518382015260200161079a565b505050509050019250505060405180910390f35b3480156107d257600080fd5b50610228600480360360208110156107e957600080fd5b50356001600160a01b0316612094565b34801561080557600080fd5b506101b76004803603602081101561081c57600080fd5b50356001600160a01b03166120a8565b34801561083857600080fd5b506101b76004803603604081101561084f57600080fd5b506001600160a01b0381351690602001356120f8565b34801561087157600080fd5b506101ce6121e9565b6004545b90565b60006108ba670de0b6b3a76400006108ae61089a6121ef565b6108a261228b565b9063ffffffff61234116565b9063ffffffff6123a316565b905090565b6001600160a01b0381166000908152600a602052604090205460ff165b919050565b6108ea33612094565b61092c576040805162461bcd60e51b815260206004820152600e60248201526d4e6f7420676f7665726e616e636560901b604482015290519081900360640190fd5b600455565b6001600160a01b0390811660009081526020819052604090208054600190910154911691600160a01b90910460ff1690565b61096b611e61565b6109aa576040805162461bcd60e51b81526020600482018190526024820152600080516020613079833981519152604482015290519081900360640190fd5b6001600160a01b038316158015906109ca57506001600160a01b03821615155b80156109d65750600081115b610a27576040805162461bcd60e51b815260206004820152601c60248201527f466c6173684c6f616e3a20496e76616c696420706172616d6574657200000000604482015290519081900360640190fd5b604080516370a0823160e01b8152306004820152905184916001600160a01b038316916370a0823191602480820192602092909190829003018186803b158015610a7057600080fd5b505afa158015610a84573d6000803e3d6000fd5b505050506040513d6020811015610a9a57600080fd5b5051821115610b1857604080516370a0823160e01b815230600482015290516001600160a01b038316916370a08231916024808301926020929190829003018186803b158015610ae957600080fd5b505afa158015610afd573d6000803e3d6000fd5b505050506040513d6020811015610b1357600080fd5b505191505b610b326001600160a01b038216848463ffffffff6123e516565b50505050565b6000610b4382612437565b610b7e5760405162461bcd60e51b81526004018080602001828103825260288152602001806130306028913960400191505060405180910390fd5b6001600160a01b0382811660009081526020819052604090205416610bd45760405162461bcd60e51b81526004018080602001828103825260278152602001806130bd6027913960400191505060405180910390fd5b6009546001600160a01b0383811691161415610bf957610bf261228b565b90506108dc565b6000610c03610881565b905080610c145760009150506108dc565b6007546008546040805163fc57d4df60e01b81526001600160a01b0392831660048201529051600093929092169163fc57d4df91602480820192602092909190829003018186803b158015610c6857600080fd5b505afa158015610c7c573d6000803e3d6000fd5b505050506040513d6020811015610c9257600080fd5b50516007546001600160a01b0386811660009081526020818152604080832054815163fc57d4df60e01b8152908516600482015290519596509194929093169263fc57d4df92602480840193829003018186803b158015610cf257600080fd5b505afa158015610d06573d6000803e3d6000fd5b505050506040513d6020811015610d1c57600080fd5b50516040805163313ce56760e01b815290519192506000916001600160a01b0388169163313ce567916004808301926020929190829003018186803b158015610d6457600080fd5b505afa158015610d78573d6000803e3d6000fd5b505050506040513d6020811015610d8e57600080fd5b505160ff1690506000610daf846108ae85600a86900a63ffffffff61234116565b9050610dc9816108ae87600a86900a63ffffffff61234116565b979650505050505050565b600b546001600160a01b031681565b610deb612473565b610df3612ef0565b6000868514610e335760405162461bcd60e51b81526004018080602001828103825260288152602001806130086028913960400191505060405180910390fd5b6000610e3d61228b565b9050606089899050604051908082528060200260200182016040528015610e6e578160200160208202803883390190505b50905060608a8a9050604051908082528060200260200182016040528015610ea0578160200160208202803883390190505b506001600160a01b038d1686526000602087015290505b60208501518a11156111ee576000610eed8c8c8860200151818110610ed857fe5b905060200201356001600160a01b0316610b38565b9050808a8a8860200151818110610f0057fe5b905060200201351115610f445760405162461bcd60e51b8152600401808060200182810382526021815260200180612f906021913960400191505060405180910390fd5b6000808d8d8960200151818110610f5757fe5b905060200201356001600160a01b03166001600160a01b03166001600160a01b0316815260200190815260200160002060000160009054906101000a90046001600160a01b031683876020015181518110610fae57fe5b6001600160a01b03928316602091820292909201810191909152600954908801519116908d908d90818110610fdf57fe5b905060200201356001600160a01b03166001600160a01b0316141561103a576110358387602001518151811061101157fe5b60200260200101518b8b896020015181811061102957fe5b905060200201356124cd565b611128565b8286602001518151811061104a57fe5b60200260200101516001600160a01b031663c5ebeaec8b8b896020015181811061107057fe5b905060200201356040518263ffffffff1660e01b815260040180828152602001915050602060405180830381600087803b1580156110ad57600080fd5b505af11580156110c1573d6000803e3d6000fd5b505050506040513d60208110156110d757600080fd5b505194508415611128576040805162461bcd60e51b8152602060048201526017602482015276233630b9b42637b0b71d103137b93937bb9032b93937b960491b604482015290519081900360640190fd5b6111318d6108bf565b61116b576111666127106108ae6004548d8d8b6020015181811061115157fe5b9050602002013561234190919063ffffffff16565b61116e565b60005b8287602001518151811061117e57fe5b6020026020010181815250506111dd8d8b8b896020015181811061119e57fe5b905060200201358e8e8a602001518181106111b557fe5b905060200201356001600160a01b03166001600160a01b03166123e59092919063ffffffff16565b506020850180516001019052610eb7565b84600001516001600160a01b031663920f5c848c8c8c8c86338e8e6040518963ffffffff1660e01b815260040180806020018060200180602001876001600160a01b03166001600160a01b031681526020018060200185810385528d8d82818152602001925060200280828437600083820152601f01601f191690910186810385528b8152602090810191508c908c02808284376000838201819052601f909101601f191690920187810385528b5181528b51602091820193828e0193509102908190849084905b838110156112ce5781810151838201526020016112b6565b505050509050018581038252878782818152602001925080828437600081840152601f19601f8201169050808301925050509c50505050505050505050505050602060405180830381600087803b15801561132857600080fd5b505af115801561133c573d6000803e3d6000fd5b505050506040513d602081101561135257600080fd5b505161138f5760405162461bcd60e51b815260040180806020018281038252602e815260200180613197602e913960400191505060405180910390fd5b600060208601525b60208501518a1115611812578a8a86602001518181106113b357fe5b602090810292909201356001600160a01b0316604088015250850151899089908181106113dc57fe5b90506020020135856080018181525050808560200151815181106113fc57fe5b60200260200101518560a00181815250508185602001518151811061141d57fe5b60209081029190910101516001600160a01b0316606086015260a0850151608086015161144f9163ffffffff6125fe16565b60c08601819052604086015161147a916001600160a01b03909116908e90309063ffffffff61265816565b6060850151604080516305eff7ef60e21b815230600482015290516000926001600160a01b0316916317bfdfbc91602480830192602092919082900301818787803b1580156114c857600080fd5b505af11580156114dc573d6000803e3d6000fd5b505050506040513d60208110156114f257600080fd5b505160095460408801519192506001600160a01b039182169116141561163b5760095460c087015160408051632e1a7d4d60e01b81526004810192909252516001600160a01b0390921691632e1a7d4d9160248082019260009290919082900301818387803b15801561156457600080fd5b505af1158015611578573d6000803e3d6000fd5b5050505085606001516001600160a01b0316634e4d9fea826040518263ffffffff1660e01b81526004016000604051808303818588803b1580156115bb57600080fd5b505af11580156115cf573d6000803e3d6000fd5b505050505060008660a001511115611636576115e9611e52565b6001600160a01b03166108fc61160c838960c001516126b290919063ffffffff16565b6040518115909202916000818181858888f19350505050158015611634573d6000803e3d6000fd5b505b611798565b6116628660600151600088604001516001600160a01b03166126f49092919063ffffffff16565b61168886606001518288604001516001600160a01b03166126f49092919063ffffffff16565b85606001516001600160a01b0316630e752702826040518263ffffffff1660e01b815260040180828152602001915050602060405180830381600087803b1580156116d257600080fd5b505af11580156116e6573d6000803e3d6000fd5b505050506040513d60208110156116fc57600080fd5b505194508415611753576040805162461bcd60e51b815260206004820152601c60248201527f466c6173684c6f616e3a207265706179426f72726f77206572726f7200000000604482015290519081900360640190fd5b60a08601511561179857611798611768611e52565b60c088015161177d908463ffffffff6126b216565b60408901516001600160a01b0316919063ffffffff6123e516565b85604001516001600160a01b0316336001600160a01b03168e6001600160a01b03167f3659d15bd4bb92ab352a8d35bc3119ec6e7e0ab48e4d46201c8a28e02b6a8a8689608001518a60a00151604051808381526020018281526020019250505060405180910390a4506020850180516001019052611397565b61181a61228b565b83111561186e576040805162461bcd60e51b815260206004820152601f60248201527f466c6173684c6f616e3a206c6971756964697479206465637265617365642100604482015290519081900360640190fd5b505050505050505050505050565b60035460ff1690565b61188e33612094565b6118d0576040805162461bcd60e51b815260206004820152600e60248201526d4e6f7420676f7665726e616e636560901b604482015290519081900360640190fd5b60005b60ff8116841115611a2c57600085858360ff168181106118ef57fe5b905060200201356001600160a01b0316905061190a81612437565b6119455760405162461bcd60e51b81526004018080602001828103825260288152602001806130306028913960400191505060405180910390fd5b6001600160a01b03818116600090815260208190526040902054161561199c5760405162461bcd60e51b815260040180806020018281038252602781526020018061310e6027913960400191505060405180910390fd5b6119c384848460ff168181106119ae57fe5b905060200201356001600160a01b0316612807565b83838360ff168181106119d257fe5b6001600160a01b0384811660008181526020818152604090912080549490910295909501359091166001600160a01b03199283161784556001909301805490911690921790915550611a2381612a8c565b506001016118d3565b5050505050565b611a3b611e61565b611a7a576040805162461bcd60e51b81526020600482018190526024820152600080516020613079833981519152604482015290519081900360640190fd5b600c546040516000916001600160a01b0316907f8be0079c531659141344cd1fd0a4f28419497f9722a3daafe3b4186f6b6457e0908390a3600c80546001600160a01b0319169055565b6006546001600160a01b031690565b611adc33612094565b611b1e576040805162461bcd60e51b815260206004820152600e60248201526d4e6f7420676f7665726e616e636560901b604482015290519081900360640190fd5b611b2781612437565b611b625760405162461bcd60e51b8152600401808060200182810382526029815260200180612fdf6029913960400191505060405180910390fd5b600780546001600160a01b0319166001600160a01b0392909216919091179055565b611b8d33612094565b611bcf576040805162461bcd60e51b815260206004820152600e60248201526d4e6f7420676f7665726e616e636560901b604482015290519081900360640190fd5b80611c21576040805162461bcd60e51b815260206004820152601b60248201527f466c6173684c6f616e3a20696e76616c696420617267756d656e740000000000604482015290519081900360640190fd5b60005b81811015611cdb576000838383818110611c3a57fe5b905060200201356001600160a01b03166001600160a01b03161415611c905760405162461bcd60e51b815260040180806020018281038252602c81526020018061316b602c913960400191505060405180910390fd5b6001600a6000858585818110611ca257fe5b602090810292909201356001600160a01b0316835250810191909152604001600020805460ff1916911515919091179055600101611c24565b505050565b6007546001600160a01b031690565b611cf833612094565b611d3a576040805162461bcd60e51b815260206004820152600e60248201526d4e6f7420676f7665726e616e636560901b604482015290519081900360640190fd5b6001600160a01b038116611d7f5760405162461bcd60e51b815260040180806020018281038252602c81526020018061316b602c913960400191505060405180910390fd5b6001600160a01b03166000908152600a60205260409020805460ff19169055565b611da933612094565b611deb576040805162461bcd60e51b815260206004820152600e60248201526d4e6f7420676f7665726e616e636560901b604482015290519081900360640190fd5b6001600160a01b038116611e305760405162461bcd60e51b815260040180806020018281038252602e815260200180612fb1602e913960400191505060405180910390fd5b600680546001600160a01b0319166001600160a01b0392909216919091179055565b600c546001600160a01b031690565b600c546000906001600160a01b0316611e78612b97565b6001600160a01b031614905090565b611e9033612094565b611ed2576040805162461bcd60e51b815260206004820152600e60248201526d4e6f7420676f7665726e616e636560901b604482015290519081900360640190fd5b6001600160a01b038116611f175760405162461bcd60e51b8152600401808060200182810382526021815260200180612f496021913960400191505060405180910390fd5b600b80546001600160a01b0319166001600160a01b0392909216919091179055565b6009546001600160a01b031690565b611f5133612094565b611f93576040805162461bcd60e51b815260206004820152600e60248201526d4e6f7420676f7665726e616e636560901b604482015290519081900360640190fd5b6003805460ff1916821515179081905560ff1615611fd9576040517f9e87fac88ff661f02d44f95383c817fece4bce600a3dab7a54406878b965e75290600090a1612003565b6040517fa45f47fdea8a1efdd9029a5691c7f759c32b7c698632b563573e155625d1693390600090a15b50565b606080600254604051908082528060200260200182016040528015612035578160200160208202803883390190505b50905060005b60025481101561208e5760008181526001602052604090205482516001600160a01b039091169083908390811061206e57fe5b6001600160a01b039092166020928302919091019091015260010161203b565b50905090565b600b546001600160a01b0390811691161490565b6120b0611e61565b6120ef576040805162461bcd60e51b81526020600482018190526024820152600080516020613079833981519152604482015290519081900360640190fd5b61200381612b9b565b612100611e61565b61213f576040805162461bcd60e51b81526020600482018190526024820152600080516020613079833981519152604482015290519081900360640190fd5b6001600160a01b038216158015906121575750600081115b6121a8576040805162461bcd60e51b815260206004820152601c60248201527f466c6173684c6f616e3a20496e76616c696420706172616d6574657200000000604482015290519081900360640190fd5b478111156121b35750475b6040516001600160a01b0383169082156108fc029083906000818181858888f19350505050158015611cdb573d6000803e3d6000fd5b60055490565b6007546008546040805163fc57d4df60e01b81526001600160a01b03928316600482015290516000936108ba93169163fc57d4df916024808301926020929190829003018186803b15801561224357600080fd5b505afa158015612257573d6000803e3d6000fd5b505050506040513d602081101561226d57600080fd5b50516ec097ce7bc90715b34b9f10000000009063ffffffff6123a316565b60065460408051635ec88c7960e01b815230600482015290516000928392839283926001600160a01b031691635ec88c79916024808301926060929190829003018186803b1580156122dc57600080fd5b505afa1580156122f0573d6000803e3d6000fd5b505050506040513d606081101561230657600080fd5b508051602082015160409092015190945090925090508215158061232957508015155b1561233a576000935050505061087e565b5091505090565b6000826123505750600061239d565b8282028284828161235d57fe5b041461239a5760405162461bcd60e51b81526004018080602001828103825260218152602001806130586021913960400191505060405180910390fd5b90505b92915050565b600061239a83836040518060400160405280601a81526020017f536166654d6174683a206469766973696f6e206279207a65726f000000000000815250612c3c565b604080516001600160a01b038416602482015260448082018490528251808303909101815260649091019091526020810180516001600160e01b031663a9059cbb60e01b179052611cdb908490612cde565b6000813f7fc5d2460186f7233c927e7db2dcc703c0e500b653ca82273b7bfad8045d85a470811580159061246b5750808214155b949350505050565b60035460ff16156124cb576040805162461bcd60e51b815260206004820181905260248201527f466c6173684c6f616e3a20666c617368206c6f616e2069732070617573656421604482015290519081900360640190fd5b565b6000826001600160a01b031663c5ebeaec836040518263ffffffff1660e01b815260040180828152602001915050602060405180830381600087803b15801561251557600080fd5b505af1158015612529573d6000803e3d6000fd5b505050506040513d602081101561253f57600080fd5b505190508015612590576040805162461bcd60e51b8152602060048201526017602482015276233630b9b42637b0b71d103137b93937bb9032b93937b960491b604482015290519081900360640190fd5b600960009054906101000a90046001600160a01b03166001600160a01b031663d0e30db0836040518263ffffffff1660e01b81526004016000604051808303818588803b1580156125e057600080fd5b505af11580156125f4573d6000803e3d6000fd5b5050505050505050565b60008282018381101561239a576040805162461bcd60e51b815260206004820152601b60248201527f536166654d6174683a206164646974696f6e206f766572666c6f770000000000604482015290519081900360640190fd5b604080516001600160a01b0385811660248301528416604482015260648082018490528251808303909101815260849091019091526020810180516001600160e01b03166323b872dd60e01b179052610b32908590612cde565b600061239a83836040518060400160405280601e81526020017f536166654d6174683a207375627472616374696f6e206f766572666c6f770000815250612e96565b80158061277a575060408051636eb1769f60e11b81523060048201526001600160a01b03848116602483015291519185169163dd62ed3e91604480820192602092909190829003018186803b15801561274c57600080fd5b505afa158015612760573d6000803e3d6000fd5b505050506040513d602081101561277657600080fd5b5051155b6127b55760405162461bcd60e51b81526004018080602001828103825260368152602001806131356036913960400191505060405180910390fd5b604080516001600160a01b038416602482015260448082018490528251808303909101815260649091019091526020810180516001600160e01b031663095ea7b360e01b179052611cdb908490612cde565b6006546040805163929fe9a160e01b81523060048201526001600160a01b0384811660248301529151919092169163929fe9a1916044808301926020929190829003018186803b15801561285a57600080fd5b505afa15801561286e573d6000803e3d6000fd5b505050506040513d602081101561288457600080fd5b50511561289057612003565b6040805160018082528183019092526060916020808301908038833901905050905081816000815181106128c057fe5b6001600160a01b03928316602091820292909201810191909152600654604051631853304760e31b815260048101838152855160248301528551606095939093169363c29982389387938392604490910191858201910280838360005b8381101561293557818101518382015260200161291d565b5050505090500192505050600060405180830381600087803b15801561295a57600080fd5b505af115801561296e573d6000803e3d6000fd5b505050506040513d6000823e601f3d908101601f19168201604052602081101561299757600080fd5b8101908080516040519392919084600160201b8211156129b657600080fd5b9083019060208201858111156129cb57600080fd5b82518660208202830111600160201b821117156129e757600080fd5b82525081516020918201928201910280838360005b83811015612a145781810151838201526020016129fc565b50505050905001604052505050905080600081518110612a3057fe5b6020026020010151600014611cdb576040805162461bcd60e51b815260206004820152601d60248201527f466c6173684c6f616e3a20656e746572206d61726b6574206572726f72000000604482015290519081900360640190fd5b6002546005548110612acf5760405162461bcd60e51b81526004018080602001828103825260248152602001806130996024913960400191505060405180910390fd5b6001600160a01b038216600090815260208190526040812060010154600160a01b900460ff16151580612b3757506000805260016020527fa6eef7e35abe7026729641147f7915573c7e97b47efa546f5f6e3230263bcb49546001600160a01b038481169116145b905080611cdb57506001600160a01b03919091166000818152602081815260408083206001908101805460ff60a01b1916600160a01b60ff8916021790558584529182905290912080546001600160a01b03191690921790915501600255565b3390565b6001600160a01b038116612be05760405162461bcd60e51b8152600401808060200182810382526026815260200180612f6a6026913960400191505060405180910390fd5b600c546040516001600160a01b038084169216907f8be0079c531659141344cd1fd0a4f28419497f9722a3daafe3b4186f6b6457e090600090a3600c80546001600160a01b0319166001600160a01b0392909216919091179055565b60008183612cc85760405162461bcd60e51b81526004018080602001828103825283818151815260200191508051906020019080838360005b83811015612c8d578181015183820152602001612c75565b50505050905090810190601f168015612cba5780820380516001836020036101000a031916815260200191505b509250505060405180910390fd5b506000838581612cd457fe5b0495945050505050565b612cf0826001600160a01b0316612437565b612d41576040805162461bcd60e51b815260206004820152601f60248201527f5361666545524332303a2063616c6c20746f206e6f6e2d636f6e747261637400604482015290519081900360640190fd5b60006060836001600160a01b0316836040518082805190602001908083835b60208310612d7f5780518252601f199092019160209182019101612d60565b6001836020036101000a0380198251168184511680821785525050505050509050019150506000604051808303816000865af19150503d8060008114612de1576040519150601f19603f3d011682016040523d82523d6000602084013e612de6565b606091505b509150915081612e3d576040805162461bcd60e51b815260206004820181905260248201527f5361666545524332303a206c6f772d6c6576656c2063616c6c206661696c6564604482015290519081900360640190fd5b805115610b3257808060200190516020811015612e5957600080fd5b5051610b325760405162461bcd60e51b815260040180806020018281038252602a8152602001806130e4602a913960400191505060405180910390fd5b60008184841115612ee85760405162461bcd60e51b8152602060048201818152835160248401528351909283926044909101919085019080838360008315612c8d578181015183820152602001612c75565b505050900390565b6040518060e0016040528060006001600160a01b031681526020016000815260200160006001600160a01b0316815260200160006001600160a01b03168152602001600081526020016000815260200160008152509056fe6e657720676f7665726e616e63652073686f756c646e277420626520656d7074794f776e61626c653a206e6577206f776e657220697320746865207a65726f2061646472657373466c6173684c6f616e3a20496e73756666696369656e74206c6971756964697479466c6173684c6f616e3a20636f6d7074726f6c6c657220616464726573732063616e206e6f74206265207a65726f466c6173684c6f616e3a206f7261636c652061646472657373206973206e6f7420636f6e7472616374466c6173684c6f616e3a20696e76616c696420666c617368206c6f616e20706172616d657465722e466c6173684c6f616e3a2061737365742061646472657373206973206e6f7420636f6e7472616374536166654d6174683a206d756c7469706c69636174696f6e206f766572666c6f774f776e61626c653a2063616c6c6572206973206e6f7420746865206f776e6572466c6173684c6f616e3a206e6f206d6f726520726573657276657320616c6c6f77656421466c6173684c6f616e3a2074686973206173736574206973206e6f742073757270706f727465645361666545524332303a204552433230206f7065726174696f6e20646964206e6f742073756363656564466c6173684c6f616e3a207265736572766520616c726561647920696e697469616c697a65642e5361666545524332303a20617070726f76652066726f6d206e6f6e2d7a65726f20746f206e6f6e2d7a65726f20616c6c6f77616e6365466c6173684c6f616e3a2077686974656c6973742063616e206e6f74206265207a65726f2061646472657373466c6173684c6f616e3a20696e76616c696420666c617368206c6f616e206578656375746f722072657475726e21a265627a7a7231582084655930a6cf3d91ac42ceef691fe9f7bf3f18a8f9b39db7bc957e2dd75ed79464736f6c63430005100032",
  "source": "// SPDX-License-Identifier: MIT\npragma solidity >=0.4.22 <0.8.0;\n\nimport './Governable.sol';\nimport './FlashLoanStorage.sol';\nimport './IFlashLoan.sol';\nimport './IFlashLoanReceiver.sol';\nimport './compound/CTokenInterfaces.sol';\nimport './compound/Comptroller.sol';\nimport './compound/CEther.sol';\nimport './dependency.sol';\nimport './oracle/ChainlinkAdaptor.sol';\n\ncontract IERC20Extented is IERC20 {\n    function decimals() public view returns (uint8);\n}\n\ncontract FlashLoan is IFlashLoan, FlashLoanStorage, Governable, Ownable {\n    using SafeMath for uint256;\n    using SafeERC20 for IERC20;\n    using SafeERC20 for WETH;\n\n    modifier whenNotPaused() {\n        _whenNotPaused();\n        _;\n    }\n\n    function _whenNotPaused() internal view {\n        require(!_paused, \"FlashLoan: flash loan is paused!\");\n    }\n\n    constructor(address _governance, address comptroller, address oracle, address fHUSD, address weth) public Governable(_governance) {\n        _comptroller = Comptroller(comptroller);\n        _oracle = ChainlinkAdaptor(oracle);\n        _fHUSD = fHUSD;\n        _WETH = WETH(weth);\n        _flashLoanPremiumTotal = 10;\n        _maxNumberOfReserves = 128;\n    }\n\n    struct FlashLoanLocalVars {\n        IFlashLoanReceiver receiver;\n        uint256 i;\n        address currentAsset;\n        address currentFTokenAddress;\n        uint256 currentAmount;\n        uint256 currentPremium;\n        uint256 currentAmountPlusPremium;\n    }\n\n    /**\n     * @dev Allows smartcontracts to access the liquidity of the pool within one transaction,\n     * as long as the amount taken plus a fee is returned.\n     * IMPORTANT There are security concerns for developers of flashloan receiver contracts that must be kept into consideration.\n     * For further details please visit https://developers.aave.com\n     * @param receiverAddress The address of the contract receiving the funds, implementing the IFlashLoanReceiver interface\n     * @param assets The addresses of the assets being flash-borrowed\n     * @param amounts The amounts amounts being flash-borrowed\n     * @param params Variadic packed params to pass to the receiver as extra information\n     *   0 if the action is executed directly by the user, without any middle-man\n     **/\n    function flashLoan(\n        address receiverAddress,\n        address[] calldata assets,\n        uint256[] calldata amounts,\n        bytes calldata params\n    ) external whenNotPaused {\n        FlashLoanLocalVars memory vars;\n        uint err = 0;\n\n        require(assets.length == amounts.length, \"FlashLoan: invalid flash loan parameter.\");\n\n        uint256 liquidity = _getLiquidity();\n\n        address[] memory fTokenAddresses = new address[](assets.length);\n        uint256[] memory premiums = new uint256[](assets.length);\n\n        vars.receiver = IFlashLoanReceiver(receiverAddress);\n\n        for (vars.i = 0; vars.i < assets.length; vars.i++) {\n            uint256 maxTokenAmount = getMaxTokenAmount(assets[vars.i]);\n            require(amounts[vars.i] <= maxTokenAmount, \"FlashLoan: Insufficient liquidity\");\n\n            fTokenAddresses[vars.i] = _reserves[assets[vars.i]].fTokenAddress;\n\n            if (assets[vars.i] == address(_WETH)) {\n                borrowETH(fTokenAddresses[vars.i], amounts[vars.i]);\n            } else {\n                err = CToken(fTokenAddresses[vars.i]).borrow(amounts[vars.i]);\n                require(err == 0, \"FlashLoan: borrow error\");\n            }\n\n            premiums[vars.i] = isInWhitelist(receiverAddress) ? 0 : amounts[vars.i].mul(_flashLoanPremiumTotal).div(10000);\n\n            IERC20(assets[vars.i]).safeTransfer(receiverAddress, amounts[vars.i]);\n        }\n\n        require(\n            vars.receiver.executeOperation(assets, amounts, premiums, msg.sender, params),\n            \"FlashLoan: invalid flash loan executor return!\"\n        );\n\n        for (vars.i = 0; vars.i < assets.length; vars.i++) {\n            vars.currentAsset = assets[vars.i];\n            vars.currentAmount = amounts[vars.i];\n            vars.currentPremium = premiums[vars.i];\n            vars.currentFTokenAddress = fTokenAddresses[vars.i];\n            vars.currentAmountPlusPremium = vars.currentAmount.add(vars.currentPremium);\n\n            IERC20(vars.currentAsset).safeTransferFrom(\n                receiverAddress,\n                address(this),\n                vars.currentAmountPlusPremium\n            );\n\n            uint256 borrowBalance = CToken(vars.currentFTokenAddress).borrowBalanceCurrent(address(this));\n            if (vars.currentAsset == address(_WETH)) {\n                _WETH.withdraw(vars.currentAmountPlusPremium);\n\n                // repay loan.\n                CEther(vars.currentFTokenAddress).repayBorrow.value(borrowBalance)();\n\n                if (vars.currentPremium > 0) {\n                    // send premium to owner.\n                    address(uint160(owner())).transfer(vars.currentAmountPlusPremium.sub(borrowBalance));\n                }\n            } else {\n                IERC20(vars.currentAsset).safeApprove(vars.currentFTokenAddress, 0);\n                IERC20(vars.currentAsset).safeApprove(vars.currentFTokenAddress, borrowBalance);\n\n                 // repay loan.\n                err = CToken(vars.currentFTokenAddress).repayBorrow(borrowBalance);\n                require(err == 0, \"FlashLoan: repayBorrow error\");\n\n                if (vars.currentPremium > 0) {\n                    // send premium to owner.\n                    IERC20(vars.currentAsset).safeTransfer(owner(), vars.currentAmountPlusPremium.sub(borrowBalance));\n                }\n            }\n\n            emit FlashLoan(\n                receiverAddress,\n                msg.sender,\n                vars.currentAsset,\n                vars.currentAmount,\n                vars.currentPremium\n            );\n        }\n\n        require(liquidity <= _getLiquidity(), \"FlashLoan: liquidity decreased!\");\n    }\n\n    function borrowETH(address cetherAddr, uint256 amount) internal {\n        uint err = CEther(cetherAddr).borrow(amount);\n        require(err == 0, \"FlashLoan: borrow error\");\n\n        _WETH.deposit.value(amount)();\n    }\n\n    /**\n     * @dev Returns the list of the initialized reserves\n     **/\n    function getReservesList() external view returns (address[] memory) {\n        address[] memory _activeReserves = new address[](_reservesCount);\n\n        for (uint256 i = 0; i < _reservesCount; i++) {\n            _activeReserves[i] = _reservesList[i];\n        }\n        return _activeReserves;\n    }\n\n    /**\n     * @dev Returns the fee on flash loans\n     */\n    function FLASHLOAN_PREMIUM_TOTAL() public view returns (uint256) {\n        return _flashLoanPremiumTotal;\n    }\n\n    /**\n     * @dev Returns the maximum number of reserves supported to be listed in this LendingPool\n     */\n    function MAX_NUMBER_RESERVES() public view returns (uint256) {\n        return _maxNumberOfReserves;\n    }\n\n    /**\n     * @dev Set the _pause state of a reserve\n     * - Only callable by the LendingPoolConfigurator contract\n     * @param val `true` to pause the reserve, `false` to un-pause it\n     */\n    function setPause(bool val) external onlyGovernance {\n        _paused = val;\n        if (_paused) {\n            emit Paused();\n        } else {\n            emit Unpaused();\n        }\n    }\n\n    function paused() external view returns (bool) {\n        return _paused;\n    }\n\n    function setFlashLoanPremium(uint256 flashLoanPremium) external onlyGovernance {\n        _flashLoanPremiumTotal = flashLoanPremium;\n    }\n\n    /**\n     * @dev Initializes a reserve, activating it, assigning a fToken and underlying tokens\n     * @param assets The address list of the underlying asset of the reserve\n     * @param fTokenAddresses The address list of the fToken\n     **/\n    function initReserve(\n        address[] calldata assets,\n        address[] calldata fTokenAddresses\n    ) external onlyGovernance {\n        for (uint8 i = 0; i < assets.length; i++) {\n            address asset = assets[i];\n            require(Address.isContract(asset), \"FlashLoan: asset address is not contract\");\n            require(_reserves[asset].fTokenAddress == address(0), \"FlashLoan: reserve already initialized.\");\n\n            enterMarket(fTokenAddresses[i]);\n\n            _reserves[asset].fTokenAddress = fTokenAddresses[i];\n            _reserves[asset].tokenAddress = asset;\n\n            _addReserveToList(asset);\n        }\n    }\n\n    /**\n     * @dev Returns the state and configuration of the reserve\n     * @param asset The address of the underlying asset of the reserve\n     * @return The state of the reserve\n     **/\n    function getReserveData(address asset)\n        external\n        view\n        returns (address, uint8)\n    {\n        return (_reserves[asset].fTokenAddress, _reserves[asset].id);\n    }\n\n\n    function _addReserveToList(address asset) internal {\n        uint256 reservesCount = _reservesCount;\n\n        require(reservesCount < _maxNumberOfReserves, \"FlashLoan: no more reserves allowed!\");\n\n        bool reserveAlreadyAdded = _reserves[asset].id != 0 || _reservesList[0] == asset;\n\n        if (!reserveAlreadyAdded) {\n            _reserves[asset].id = uint8(reservesCount);\n            _reservesList[reservesCount] = asset;\n\n            _reservesCount = reservesCount + 1;\n        }\n    }\n\n    function withdrawERC20(address _token, address _account, uint256 amount) public onlyOwner {\n        require(_token != address(0) && _account != address(0) && amount > 0, \"FlashLoan: Invalid parameter\");\n        IERC20 token = IERC20(_token);\n        if (amount > token.balanceOf(address(this))) {\n            amount = token.balanceOf(address(this));\n        }\n        token.safeTransfer(_account, amount);\n    }\n\n    function withdraw(address payable _account, uint256 amount) public onlyOwner {\n        require(_account != address(0) && amount > 0, \"FlashLoan: Invalid parameter\");\n        if (amount > address(this).balance) {\n            amount = address(this).balance;\n        }\n        _account.transfer(amount);\n    }\n\n    function getComptroller() external view returns (address) {\n        return address(_comptroller);\n    }\n\n    function setComptroller(address comptroller) external onlyGovernance {\n        require(comptroller != address(0), \"FlashLoan: comptroller address can not be zero\");\n        _comptroller = Comptroller(comptroller);\n    }\n\n    function enterMarket(address ftoken) internal {\n        if (_comptroller.checkMembership(address(this), CToken(ftoken))) {\n            return;\n        }\n\n        address[] memory tokens = new address[](1);\n        tokens[0] = ftoken;\n        uint[] memory errs = _comptroller.enterMarkets(tokens);\n        require(errs[0] == 0, \"FlashLoan: enter market error\");\n    }\n\n    function exitMarket(address ftoken) internal {\n        if (!_comptroller.checkMembership(address(this), CToken(ftoken))) {\n            return;\n        }\n\n        uint err = _comptroller.exitMarket(ftoken);\n        require(err == 0, \"FlashLoan: exit market error\");\n    }\n\n    function _getLiquidity() private view returns (uint256) {\n        (uint error, uint256 liquidity, uint shortfall) = _comptroller.getAccountLiquidity(address(this));\n        if (error != 0 || shortfall != 0) {\n            return 0;\n        }\n\n        return liquidity;\n    }\n\n    function getLiquidity() public view returns (uint256) {\n        return _getLiquidity().mul(getHtPrice()).div(1e18);\n    }\n\n    function getOracle() external view returns (address) {\n        return address(_oracle);\n    }\n\n    function setOracle(address oracle) external onlyGovernance {\n        require(Address.isContract(oracle), \"FlashLoan: oracle address is not contract\");\n        _oracle = ChainlinkAdaptor(oracle);\n    }\n\n    function getMaxTokenAmount(address asset) public view returns (uint256) {\n        require(Address.isContract(asset), \"FlashLoan: asset address is not contract\");\n        require(_reserves[asset].fTokenAddress != address(0), \"FlashLoan: this asset is not surpported\");\n\n        if (asset == address(_WETH)) {\n            return _getLiquidity();\n        }\n\n        uint256 liquidity = getLiquidity();\n        if (liquidity == 0) {\n            return 0;\n        }\n\n        uint256 husdHTPrice = _oracle.getUnderlyingPrice(CToken(_fHUSD));\n        uint256 tokenHTPrice = _oracle.getUnderlyingPrice(CToken(_reserves[asset].fTokenAddress));\n\n        uint256 decimals = IERC20Extented(asset).decimals();\n        uint256 tokenPrice = tokenHTPrice.mul(10**decimals).div(husdHTPrice);\n\n        return liquidity.mul(10**decimals).div(tokenPrice);\n    }\n\n    function getHtPrice() private view returns (uint256) {\n        return uint256(1e36).div(_oracle.getUnderlyingPrice(CToken(_fHUSD)));\n    }\n\n    function WETH() external view returns (address) {\n        return address(_WETH);\n    }\n\n    function () external payable {}\n\n    function addToWhitelist(address[] calldata _targets) external onlyGovernance {\n        require(_targets.length > 0, \"FlashLoan: invalid argument\");\n        for (uint i = 0; i < _targets.length; i++) {\n            require(_targets[i] != address(0), \"FlashLoan: whitelist can not be zero address\");\n            _whitelist[_targets[i]] = true;\n        }\n    }\n\n    function removeFromWhitelist(address _target) external onlyGovernance {\n        require(_target != address(0), \"FlashLoan: whitelist can not be zero address\");\n        _whitelist[_target] = false;\n    }\n\n    function isInWhitelist(address _target) public view returns (bool) {\n        return _whitelist[_target];\n    }\n}\n",
  "sourcePath": "/Users/huahua/repo/truffle/flashloan/contracts/FlashLoan.sol",
  "compiler": {
    "name": "solc",
    "version": "0.5.16+commit.9c3226ce.Emscripten.clang"
  },
  "schemaVersion": "3.3.2",
  "updatedAt": "2021-04-29T10:40:16.103Z",
  "networkType": "ethereum",
  "devdoc": {
    "methods": {
      "FLASHLOAN_PREMIUM_TOTAL()": {
        "details": "Returns the fee on flash loans"
      },
      "MAX_NUMBER_RESERVES()": {
        "details": "Returns the maximum number of reserves supported to be listed in this LendingPool"
      },
      "flashLoan(address,address[],uint256[],bytes)": {
        "details": "Allows smartcontracts to access the liquidity of the pool within one transaction, as long as the amount taken plus a fee is returned. IMPORTANT There are security concerns for developers of flashloan receiver contracts that must be kept into consideration. For further details please visit https://developers.aave.com",
        "params": {
          "amounts": "The amounts amounts being flash-borrowed",
          "assets": "The addresses of the assets being flash-borrowed",
          "params": "Variadic packed params to pass to the receiver as extra information  0 if the action is executed directly by the user, without any middle-man*",
          "receiverAddress": "The address of the contract receiving the funds, implementing the IFlashLoanReceiver interface"
        }
      },
      "getReserveData(address)": {
        "details": "Returns the state and configuration of the reserve",
        "params": {
          "asset": "The address of the underlying asset of the reserve"
        },
        "return": "The state of the reserve*"
      },
      "getReservesList()": {
        "details": "Returns the list of the initialized reserves*"
      },
      "initReserve(address[],address[])": {
        "details": "Initializes a reserve, activating it, assigning a fToken and underlying tokens",
        "params": {
          "assets": "The address list of the underlying asset of the reserve",
          "fTokenAddresses": "The address list of the fToken*"
        }
      },
      "isOwner()": {
        "details": "Returns true if the caller is the current owner."
      },
      "owner()": {
        "details": "Returns the address of the current owner."
      },
      "renounceOwnership()": {
        "details": "Leaves the contract without owner. It will not be possible to call `onlyOwner` functions anymore. Can only be called by the current owner.     * NOTE: Renouncing ownership will leave the contract without an owner, thereby removing any functionality that is only available to the owner."
      },
      "setPause(bool)": {
        "details": "Set the _pause state of a reserve - Only callable by the LendingPoolConfigurator contract",
        "params": {
          "val": "`true` to pause the reserve, `false` to un-pause it"
        }
      },
      "transferOwnership(address)": {
        "details": "Transfers ownership of the contract to a new account (`newOwner`). Can only be called by the current owner."
      }
    }
  },
  "userdoc": {
    "methods": {}
  }
}