{
  "contractName": "QsMdxLPDelegate",
  "abi": [
    {
      "anonymous": false,
      "inputs": [
        {
          "indexed": false,
          "internalType": "uint256",
          "name": "cashPrior",
          "type": "uint256"
        },
        {
          "indexed": false,
          "internalType": "uint256",
          "name": "interestAccumulated",
          "type": "uint256"
        },
        {
          "indexed": false,
          "internalType": "uint256",
          "name": "borrowIndex",
          "type": "uint256"
        },
        {
          "indexed": false,
          "internalType": "uint256",
          "name": "totalBorrows",
          "type": "uint256"
        }
      ],
      "name": "AccrueInterest",
      "type": "event"
    },
    {
      "anonymous": false,
      "inputs": [
        {
          "indexed": true,
          "internalType": "address",
          "name": "owner",
          "type": "address"
        },
        {
          "indexed": true,
          "internalType": "address",
          "name": "spender",
          "type": "address"
        },
        {
          "indexed": false,
          "internalType": "uint256",
          "name": "amount",
          "type": "uint256"
        }
      ],
      "name": "Approval",
      "type": "event"
    },
    {
      "anonymous": false,
      "inputs": [
        {
          "indexed": false,
          "internalType": "address",
          "name": "borrower",
          "type": "address"
        },
        {
          "indexed": false,
          "internalType": "uint256",
          "name": "borrowAmount",
          "type": "uint256"
        },
        {
          "indexed": false,
          "internalType": "uint256",
          "name": "accountBorrows",
          "type": "uint256"
        },
        {
          "indexed": false,
          "internalType": "uint256",
          "name": "totalBorrows",
          "type": "uint256"
        }
      ],
      "name": "Borrow",
      "type": "event"
    },
    {
      "anonymous": false,
      "inputs": [
        {
          "indexed": false,
          "internalType": "uint256",
          "name": "error",
          "type": "uint256"
        },
        {
          "indexed": false,
          "internalType": "uint256",
          "name": "info",
          "type": "uint256"
        },
        {
          "indexed": false,
          "internalType": "uint256",
          "name": "detail",
          "type": "uint256"
        }
      ],
      "name": "Failure",
      "type": "event"
    },
    {
      "anonymous": false,
      "inputs": [
        {
          "indexed": false,
          "internalType": "address",
          "name": "liquidator",
          "type": "address"
        },
        {
          "indexed": false,
          "internalType": "address",
          "name": "borrower",
          "type": "address"
        },
        {
          "indexed": false,
          "internalType": "uint256",
          "name": "repayAmount",
          "type": "uint256"
        },
        {
          "indexed": false,
          "internalType": "address",
          "name": "cTokenCollateral",
          "type": "address"
        },
        {
          "indexed": false,
          "internalType": "uint256",
          "name": "seizeTokens",
          "type": "uint256"
        }
      ],
      "name": "LiquidateBorrow",
      "type": "event"
    },
    {
      "anonymous": false,
      "inputs": [
        {
          "indexed": false,
          "internalType": "address",
          "name": "minter",
          "type": "address"
        },
        {
          "indexed": false,
          "internalType": "uint256",
          "name": "mintAmount",
          "type": "uint256"
        },
        {
          "indexed": false,
          "internalType": "uint256",
          "name": "mintTokens",
          "type": "uint256"
        }
      ],
      "name": "Mint",
      "type": "event"
    },
    {
      "anonymous": false,
      "inputs": [
        {
          "indexed": false,
          "internalType": "address",
          "name": "oldAdmin",
          "type": "address"
        },
        {
          "indexed": false,
          "internalType": "address",
          "name": "newAdmin",
          "type": "address"
        }
      ],
      "name": "NewAdmin",
      "type": "event"
    },
    {
      "anonymous": false,
      "inputs": [
        {
          "indexed": false,
          "internalType": "contract ComptrollerInterface",
          "name": "oldComptroller",
          "type": "address"
        },
        {
          "indexed": false,
          "internalType": "contract ComptrollerInterface",
          "name": "newComptroller",
          "type": "address"
        }
      ],
      "name": "NewComptroller",
      "type": "event"
    },
    {
      "anonymous": false,
      "inputs": [
        {
          "indexed": false,
          "internalType": "contract InterestRateModel",
          "name": "oldInterestRateModel",
          "type": "address"
        },
        {
          "indexed": false,
          "internalType": "contract InterestRateModel",
          "name": "newInterestRateModel",
          "type": "address"
        }
      ],
      "name": "NewMarketInterestRateModel",
      "type": "event"
    },
    {
      "anonymous": false,
      "inputs": [
        {
          "indexed": false,
          "internalType": "address",
          "name": "oldPendingAdmin",
          "type": "address"
        },
        {
          "indexed": false,
          "internalType": "address",
          "name": "newPendingAdmin",
          "type": "address"
        }
      ],
      "name": "NewPendingAdmin",
      "type": "event"
    },
    {
      "anonymous": false,
      "inputs": [
        {
          "indexed": false,
          "internalType": "uint256",
          "name": "oldReserveFactorMantissa",
          "type": "uint256"
        },
        {
          "indexed": false,
          "internalType": "uint256",
          "name": "newReserveFactorMantissa",
          "type": "uint256"
        }
      ],
      "name": "NewReserveFactor",
      "type": "event"
    },
    {
      "anonymous": false,
      "inputs": [
        {
          "indexed": false,
          "internalType": "address",
          "name": "redeemer",
          "type": "address"
        },
        {
          "indexed": false,
          "internalType": "uint256",
          "name": "redeemAmount",
          "type": "uint256"
        },
        {
          "indexed": false,
          "internalType": "uint256",
          "name": "redeemTokens",
          "type": "uint256"
        }
      ],
      "name": "Redeem",
      "type": "event"
    },
    {
      "anonymous": false,
      "inputs": [
        {
          "indexed": false,
          "internalType": "address",
          "name": "payer",
          "type": "address"
        },
        {
          "indexed": false,
          "internalType": "address",
          "name": "borrower",
          "type": "address"
        },
        {
          "indexed": false,
          "internalType": "uint256",
          "name": "repayAmount",
          "type": "uint256"
        },
        {
          "indexed": false,
          "internalType": "uint256",
          "name": "accountBorrows",
          "type": "uint256"
        },
        {
          "indexed": false,
          "internalType": "uint256",
          "name": "totalBorrows",
          "type": "uint256"
        }
      ],
      "name": "RepayBorrow",
      "type": "event"
    },
    {
      "anonymous": false,
      "inputs": [
        {
          "indexed": false,
          "internalType": "address",
          "name": "benefactor",
          "type": "address"
        },
        {
          "indexed": false,
          "internalType": "uint256",
          "name": "addAmount",
          "type": "uint256"
        },
        {
          "indexed": false,
          "internalType": "uint256",
          "name": "newTotalReserves",
          "type": "uint256"
        }
      ],
      "name": "ReservesAdded",
      "type": "event"
    },
    {
      "anonymous": false,
      "inputs": [
        {
          "indexed": false,
          "internalType": "address",
          "name": "admin",
          "type": "address"
        },
        {
          "indexed": false,
          "internalType": "uint256",
          "name": "reduceAmount",
          "type": "uint256"
        },
        {
          "indexed": false,
          "internalType": "uint256",
          "name": "newTotalReserves",
          "type": "uint256"
        }
      ],
      "name": "ReservesReduced",
      "type": "event"
    },
    {
      "anonymous": false,
      "inputs": [
        {
          "indexed": true,
          "internalType": "address",
          "name": "from",
          "type": "address"
        },
        {
          "indexed": true,
          "internalType": "address",
          "name": "to",
          "type": "address"
        },
        {
          "indexed": false,
          "internalType": "uint256",
          "name": "amount",
          "type": "uint256"
        }
      ],
      "name": "Transfer",
      "type": "event"
    },
    {
      "constant": false,
      "inputs": [],
      "name": "_acceptAdmin",
      "outputs": [
        {
          "internalType": "uint256",
          "name": "",
          "type": "uint256"
        }
      ],
      "payable": false,
      "stateMutability": "nonpayable",
      "type": "function"
    },
    {
      "constant": false,
      "inputs": [
        {
          "internalType": "uint256",
          "name": "addAmount",
          "type": "uint256"
        }
      ],
      "name": "_addReserves",
      "outputs": [
        {
          "internalType": "uint256",
          "name": "",
          "type": "uint256"
        }
      ],
      "payable": false,
      "stateMutability": "nonpayable",
      "type": "function"
    },
    {
      "constant": false,
      "inputs": [
        {
          "internalType": "uint256",
          "name": "reduceAmount",
          "type": "uint256"
        }
      ],
      "name": "_reduceReserves",
      "outputs": [
        {
          "internalType": "uint256",
          "name": "",
          "type": "uint256"
        }
      ],
      "payable": false,
      "stateMutability": "nonpayable",
      "type": "function"
    },
    {
      "constant": false,
      "inputs": [],
      "name": "_resignImplementation",
      "outputs": [],
      "payable": false,
      "stateMutability": "nonpayable",
      "type": "function"
    },
    {
      "constant": false,
      "inputs": [
        {
          "internalType": "contract ComptrollerInterface",
          "name": "newComptroller",
          "type": "address"
        }
      ],
      "name": "_setComptroller",
      "outputs": [
        {
          "internalType": "uint256",
          "name": "",
          "type": "uint256"
        }
      ],
      "payable": false,
      "stateMutability": "nonpayable",
      "type": "function"
    },
    {
      "constant": false,
      "inputs": [
        {
          "internalType": "contract InterestRateModel",
          "name": "newInterestRateModel",
          "type": "address"
        }
      ],
      "name": "_setInterestRateModel",
      "outputs": [
        {
          "internalType": "uint256",
          "name": "",
          "type": "uint256"
        }
      ],
      "payable": false,
      "stateMutability": "nonpayable",
      "type": "function"
    },
    {
      "constant": false,
      "inputs": [
        {
          "internalType": "address payable",
          "name": "newPendingAdmin",
          "type": "address"
        }
      ],
      "name": "_setPendingAdmin",
      "outputs": [
        {
          "internalType": "uint256",
          "name": "",
          "type": "uint256"
        }
      ],
      "payable": false,
      "stateMutability": "nonpayable",
      "type": "function"
    },
    {
      "constant": false,
      "inputs": [
        {
          "internalType": "uint256",
          "name": "newReserveFactorMantissa",
          "type": "uint256"
        }
      ],
      "name": "_setReserveFactor",
      "outputs": [
        {
          "internalType": "uint256",
          "name": "",
          "type": "uint256"
        }
      ],
      "payable": false,
      "stateMutability": "nonpayable",
      "type": "function"
    },
    {
      "constant": true,
      "inputs": [],
      "name": "accrualBlockNumber",
      "outputs": [
        {
          "internalType": "uint256",
          "name": "",
          "type": "uint256"
        }
      ],
      "payable": false,
      "stateMutability": "view",
      "type": "function"
    },
    {
      "constant": false,
      "inputs": [],
      "name": "accrueInterest",
      "outputs": [
        {
          "internalType": "uint256",
          "name": "",
          "type": "uint256"
        }
      ],
      "payable": false,
      "stateMutability": "nonpayable",
      "type": "function"
    },
    {
      "constant": true,
      "inputs": [],
      "name": "admin",
      "outputs": [
        {
          "internalType": "address payable",
          "name": "",
          "type": "address"
        }
      ],
      "payable": false,
      "stateMutability": "view",
      "type": "function"
    },
    {
      "constant": true,
      "inputs": [
        {
          "internalType": "address",
          "name": "owner",
          "type": "address"
        },
        {
          "internalType": "address",
          "name": "spender",
          "type": "address"
        }
      ],
      "name": "allowance",
      "outputs": [
        {
          "internalType": "uint256",
          "name": "",
          "type": "uint256"
        }
      ],
      "payable": false,
      "stateMutability": "view",
      "type": "function"
    },
    {
      "constant": false,
      "inputs": [
        {
          "internalType": "address",
          "name": "spender",
          "type": "address"
        },
        {
          "internalType": "uint256",
          "name": "amount",
          "type": "uint256"
        }
      ],
      "name": "approve",
      "outputs": [
        {
          "internalType": "bool",
          "name": "",
          "type": "bool"
        }
      ],
      "payable": false,
      "stateMutability": "nonpayable",
      "type": "function"
    },
    {
      "constant": true,
      "inputs": [
        {
          "internalType": "address",
          "name": "owner",
          "type": "address"
        }
      ],
      "name": "balanceOf",
      "outputs": [
        {
          "internalType": "uint256",
          "name": "",
          "type": "uint256"
        }
      ],
      "payable": false,
      "stateMutability": "view",
      "type": "function"
    },
    {
      "constant": false,
      "inputs": [
        {
          "internalType": "address",
          "name": "owner",
          "type": "address"
        }
      ],
      "name": "balanceOfUnderlying",
      "outputs": [
        {
          "internalType": "uint256",
          "name": "",
          "type": "uint256"
        }
      ],
      "payable": false,
      "stateMutability": "nonpayable",
      "type": "function"
    },
    {
      "constant": false,
      "inputs": [
        {
          "internalType": "address",
          "name": "account",
          "type": "address"
        }
      ],
      "name": "borrowBalanceCurrent",
      "outputs": [
        {
          "internalType": "uint256",
          "name": "",
          "type": "uint256"
        }
      ],
      "payable": false,
      "stateMutability": "nonpayable",
      "type": "function"
    },
    {
      "constant": true,
      "inputs": [
        {
          "internalType": "address",
          "name": "account",
          "type": "address"
        }
      ],
      "name": "borrowBalanceStored",
      "outputs": [
        {
          "internalType": "uint256",
          "name": "",
          "type": "uint256"
        }
      ],
      "payable": false,
      "stateMutability": "view",
      "type": "function"
    },
    {
      "constant": true,
      "inputs": [],
      "name": "borrowIndex",
      "outputs": [
        {
          "internalType": "uint256",
          "name": "",
          "type": "uint256"
        }
      ],
      "payable": false,
      "stateMutability": "view",
      "type": "function"
    },
    {
      "constant": true,
      "inputs": [],
      "name": "borrowRatePerBlock",
      "outputs": [
        {
          "internalType": "uint256",
          "name": "",
          "type": "uint256"
        }
      ],
      "payable": false,
      "stateMutability": "view",
      "type": "function"
    },
    {
      "constant": true,
      "inputs": [],
      "name": "comp",
      "outputs": [
        {
          "internalType": "address",
          "name": "",
          "type": "address"
        }
      ],
      "payable": false,
      "stateMutability": "view",
      "type": "function"
    },
    {
      "constant": true,
      "inputs": [
        {
          "internalType": "address",
          "name": "",
          "type": "address"
        }
      ],
      "name": "compSupplierIndex",
      "outputs": [
        {
          "internalType": "uint256",
          "name": "",
          "type": "uint256"
        }
      ],
      "payable": false,
      "stateMutability": "view",
      "type": "function"
    },
    {
      "constant": true,
      "inputs": [
        {
          "internalType": "address",
          "name": "",
          "type": "address"
        }
      ],
      "name": "compUserAccrued",
      "outputs": [
        {
          "internalType": "uint256",
          "name": "",
          "type": "uint256"
        }
      ],
      "payable": false,
      "stateMutability": "view",
      "type": "function"
    },
    {
      "constant": true,
      "inputs": [],
      "name": "comptroller",
      "outputs": [
        {
          "internalType": "contract ComptrollerInterface",
          "name": "",
          "type": "address"
        }
      ],
      "payable": false,
      "stateMutability": "view",
      "type": "function"
    },
    {
      "constant": true,
      "inputs": [],
      "name": "decimals",
      "outputs": [
        {
          "internalType": "uint8",
          "name": "",
          "type": "uint8"
        }
      ],
      "payable": false,
      "stateMutability": "view",
      "type": "function"
    },
    {
      "constant": false,
      "inputs": [],
      "name": "exchangeRateCurrent",
      "outputs": [
        {
          "internalType": "uint256",
          "name": "",
          "type": "uint256"
        }
      ],
      "payable": false,
      "stateMutability": "nonpayable",
      "type": "function"
    },
    {
      "constant": true,
      "inputs": [],
      "name": "exchangeRateStored",
      "outputs": [
        {
          "internalType": "uint256",
          "name": "",
          "type": "uint256"
        }
      ],
      "payable": false,
      "stateMutability": "view",
      "type": "function"
    },
    {
      "constant": true,
      "inputs": [],
      "name": "fMdx",
      "outputs": [
        {
          "internalType": "address",
          "name": "",
          "type": "address"
        }
      ],
      "payable": false,
      "stateMutability": "view",
      "type": "function"
    },
    {
      "constant": true,
      "inputs": [
        {
          "internalType": "address",
          "name": "",
          "type": "address"
        }
      ],
      "name": "fTokenUserAccrued",
      "outputs": [
        {
          "internalType": "uint256",
          "name": "",
          "type": "uint256"
        }
      ],
      "payable": false,
      "stateMutability": "view",
      "type": "function"
    },
    {
      "constant": true,
      "inputs": [
        {
          "internalType": "address",
          "name": "account",
          "type": "address"
        }
      ],
      "name": "getAccountSnapshot",
      "outputs": [
        {
          "internalType": "uint256",
          "name": "",
          "type": "uint256"
        },
        {
          "internalType": "uint256",
          "name": "",
          "type": "uint256"
        },
        {
          "internalType": "uint256",
          "name": "",
          "type": "uint256"
        },
        {
          "internalType": "uint256",
          "name": "",
          "type": "uint256"
        }
      ],
      "payable": false,
      "stateMutability": "view",
      "type": "function"
    },
    {
      "constant": true,
      "inputs": [],
      "name": "getCash",
      "outputs": [
        {
          "internalType": "uint256",
          "name": "",
          "type": "uint256"
        }
      ],
      "payable": false,
      "stateMutability": "view",
      "type": "function"
    },
    {
      "constant": true,
      "inputs": [],
      "name": "hecoPool",
      "outputs": [
        {
          "internalType": "address",
          "name": "",
          "type": "address"
        }
      ],
      "payable": false,
      "stateMutability": "view",
      "type": "function"
    },
    {
      "constant": true,
      "inputs": [],
      "name": "implementation",
      "outputs": [
        {
          "internalType": "address",
          "name": "",
          "type": "address"
        }
      ],
      "payable": false,
      "stateMutability": "view",
      "type": "function"
    },
    {
      "constant": false,
      "inputs": [
        {
          "internalType": "address",
          "name": "underlying_",
          "type": "address"
        },
        {
          "internalType": "contract ComptrollerInterface",
          "name": "comptroller_",
          "type": "address"
        },
        {
          "internalType": "contract InterestRateModel",
          "name": "interestRateModel_",
          "type": "address"
        },
        {
          "internalType": "uint256",
          "name": "initialExchangeRateMantissa_",
          "type": "uint256"
        },
        {
          "internalType": "string",
          "name": "name_",
          "type": "string"
        },
        {
          "internalType": "string",
          "name": "symbol_",
          "type": "string"
        },
        {
          "internalType": "uint8",
          "name": "decimals_",
          "type": "uint8"
        }
      ],
      "name": "initialize",
      "outputs": [],
      "payable": false,
      "stateMutability": "nonpayable",
      "type": "function"
    },
    {
      "constant": false,
      "inputs": [
        {
          "internalType": "contract ComptrollerInterface",
          "name": "comptroller_",
          "type": "address"
        },
        {
          "internalType": "contract InterestRateModel",
          "name": "interestRateModel_",
          "type": "address"
        },
        {
          "internalType": "uint256",
          "name": "initialExchangeRateMantissa_",
          "type": "uint256"
        },
        {
          "internalType": "string",
          "name": "name_",
          "type": "string"
        },
        {
          "internalType": "string",
          "name": "symbol_",
          "type": "string"
        },
        {
          "internalType": "uint8",
          "name": "decimals_",
          "type": "uint8"
        }
      ],
      "name": "initialize",
      "outputs": [],
      "payable": false,
      "stateMutability": "nonpayable",
      "type": "function"
    },
    {
      "constant": true,
      "inputs": [],
      "name": "interestRateModel",
      "outputs": [
        {
          "internalType": "contract InterestRateModel",
          "name": "",
          "type": "address"
        }
      ],
      "payable": false,
      "stateMutability": "view",
      "type": "function"
    },
    {
      "constant": true,
      "inputs": [],
      "name": "isCToken",
      "outputs": [
        {
          "internalType": "bool",
          "name": "",
          "type": "bool"
        }
      ],
      "payable": false,
      "stateMutability": "view",
      "type": "function"
    },
    {
      "constant": true,
      "inputs": [],
      "name": "isNativeToken",
      "outputs": [
        {
          "internalType": "bool",
          "name": "",
          "type": "bool"
        }
      ],
      "payable": false,
      "stateMutability": "pure",
      "type": "function"
    },
    {
      "constant": true,
      "inputs": [
        {
          "internalType": "address",
          "name": "",
          "type": "address"
        }
      ],
      "name": "lpSupplierIndex",
      "outputs": [
        {
          "internalType": "uint256",
          "name": "",
          "type": "uint256"
        }
      ],
      "payable": false,
      "stateMutability": "view",
      "type": "function"
    },
    {
      "constant": true,
      "inputs": [],
      "name": "lpSupplyState",
      "outputs": [
        {
          "internalType": "uint256",
          "name": "balance",
          "type": "uint256"
        },
        {
          "internalType": "uint256",
          "name": "index",
          "type": "uint256"
        },
        {
          "internalType": "uint256",
          "name": "compBalance",
          "type": "uint256"
        },
        {
          "internalType": "uint256",
          "name": "compIndex",
          "type": "uint256"
        }
      ],
      "payable": false,
      "stateMutability": "view",
      "type": "function"
    },
    {
      "constant": true,
      "inputs": [],
      "name": "mdx",
      "outputs": [
        {
          "internalType": "address",
          "name": "",
          "type": "address"
        }
      ],
      "payable": false,
      "stateMutability": "view",
      "type": "function"
    },
    {
      "constant": false,
      "inputs": [
        {
          "internalType": "uint256",
          "name": "mintAmount",
          "type": "uint256"
        }
      ],
      "name": "mint",
      "outputs": [
        {
          "internalType": "uint256",
          "name": "",
          "type": "uint256"
        }
      ],
      "payable": false,
      "stateMutability": "nonpayable",
      "type": "function"
    },
    {
      "constant": true,
      "inputs": [],
      "name": "name",
      "outputs": [
        {
          "internalType": "string",
          "name": "",
          "type": "string"
        }
      ],
      "payable": false,
      "stateMutability": "view",
      "type": "function"
    },
    {
      "constant": true,
      "inputs": [],
      "name": "pendingAdmin",
      "outputs": [
        {
          "internalType": "address payable",
          "name": "",
          "type": "address"
        }
      ],
      "payable": false,
      "stateMutability": "view",
      "type": "function"
    },
    {
      "constant": true,
      "inputs": [],
      "name": "pid",
      "outputs": [
        {
          "internalType": "uint256",
          "name": "",
          "type": "uint256"
        }
      ],
      "payable": false,
      "stateMutability": "view",
      "type": "function"
    },
    {
      "constant": false,
      "inputs": [
        {
          "internalType": "uint256",
          "name": "redeemTokens",
          "type": "uint256"
        }
      ],
      "name": "redeem",
      "outputs": [
        {
          "internalType": "uint256",
          "name": "",
          "type": "uint256"
        }
      ],
      "payable": false,
      "stateMutability": "nonpayable",
      "type": "function"
    },
    {
      "constant": false,
      "inputs": [
        {
          "internalType": "uint256",
          "name": "redeemAmount",
          "type": "uint256"
        }
      ],
      "name": "redeemUnderlying",
      "outputs": [
        {
          "internalType": "uint256",
          "name": "",
          "type": "uint256"
        }
      ],
      "payable": false,
      "stateMutability": "nonpayable",
      "type": "function"
    },
    {
      "constant": true,
      "inputs": [],
      "name": "reserveFactorMantissa",
      "outputs": [
        {
          "internalType": "uint256",
          "name": "",
          "type": "uint256"
        }
      ],
      "payable": false,
      "stateMutability": "view",
      "type": "function"
    },
    {
      "constant": false,
      "inputs": [
        {
          "internalType": "address",
          "name": "liquidator",
          "type": "address"
        },
        {
          "internalType": "address",
          "name": "borrower",
          "type": "address"
        },
        {
          "internalType": "uint256",
          "name": "seizeTokens",
          "type": "uint256"
        }
      ],
      "name": "seize",
      "outputs": [
        {
          "internalType": "uint256",
          "name": "",
          "type": "uint256"
        }
      ],
      "payable": false,
      "stateMutability": "nonpayable",
      "type": "function"
    },
    {
      "constant": true,
      "inputs": [],
      "name": "supplyRatePerBlock",
      "outputs": [
        {
          "internalType": "uint256",
          "name": "",
          "type": "uint256"
        }
      ],
      "payable": false,
      "stateMutability": "view",
      "type": "function"
    },
    {
      "constant": true,
      "inputs": [],
      "name": "symbol",
      "outputs": [
        {
          "internalType": "string",
          "name": "",
          "type": "string"
        }
      ],
      "payable": false,
      "stateMutability": "view",
      "type": "function"
    },
    {
      "constant": true,
      "inputs": [],
      "name": "totalBorrows",
      "outputs": [
        {
          "internalType": "uint256",
          "name": "",
          "type": "uint256"
        }
      ],
      "payable": false,
      "stateMutability": "view",
      "type": "function"
    },
    {
      "constant": false,
      "inputs": [],
      "name": "totalBorrowsCurrent",
      "outputs": [
        {
          "internalType": "uint256",
          "name": "",
          "type": "uint256"
        }
      ],
      "payable": false,
      "stateMutability": "nonpayable",
      "type": "function"
    },
    {
      "constant": true,
      "inputs": [],
      "name": "totalReserves",
      "outputs": [
        {
          "internalType": "uint256",
          "name": "",
          "type": "uint256"
        }
      ],
      "payable": false,
      "stateMutability": "view",
      "type": "function"
    },
    {
      "constant": true,
      "inputs": [],
      "name": "totalSupply",
      "outputs": [
        {
          "internalType": "uint256",
          "name": "",
          "type": "uint256"
        }
      ],
      "payable": false,
      "stateMutability": "view",
      "type": "function"
    },
    {
      "constant": false,
      "inputs": [
        {
          "internalType": "address",
          "name": "dst",
          "type": "address"
        },
        {
          "internalType": "uint256",
          "name": "amount",
          "type": "uint256"
        }
      ],
      "name": "transfer",
      "outputs": [
        {
          "internalType": "bool",
          "name": "",
          "type": "bool"
        }
      ],
      "payable": false,
      "stateMutability": "nonpayable",
      "type": "function"
    },
    {
      "constant": false,
      "inputs": [
        {
          "internalType": "address",
          "name": "src",
          "type": "address"
        },
        {
          "internalType": "address",
          "name": "dst",
          "type": "address"
        },
        {
          "internalType": "uint256",
          "name": "amount",
          "type": "uint256"
        }
      ],
      "name": "transferFrom",
      "outputs": [
        {
          "internalType": "bool",
          "name": "",
          "type": "bool"
        }
      ],
      "payable": false,
      "stateMutability": "nonpayable",
      "type": "function"
    },
    {
      "constant": true,
      "inputs": [],
      "name": "underlying",
      "outputs": [
        {
          "internalType": "address",
          "name": "",
          "type": "address"
        }
      ],
      "payable": false,
      "stateMutability": "view",
      "type": "function"
    },
    {
      "constant": false,
      "inputs": [
        {
          "internalType": "bytes",
          "name": "data",
          "type": "bytes"
        }
      ],
      "name": "_becomeImplementation",
      "outputs": [],
      "payable": false,
      "stateMutability": "nonpayable",
      "type": "function"
    },
    {
      "constant": false,
      "inputs": [
        {
          "internalType": "address",
          "name": "account",
          "type": "address"
        }
      ],
      "name": "claimMdx",
      "outputs": [
        {
          "internalType": "uint256",
          "name": "",
          "type": "uint256"
        }
      ],
      "payable": false,
      "stateMutability": "nonpayable",
      "type": "function"
    },
    {
      "constant": false,
      "inputs": [
        {
          "internalType": "uint256",
          "name": "borrowAmount",
          "type": "uint256"
        }
      ],
      "name": "borrow",
      "outputs": [
        {
          "internalType": "uint256",
          "name": "",
          "type": "uint256"
        }
      ],
      "payable": false,
      "stateMutability": "nonpayable",
      "type": "function"
    },
    {
      "constant": false,
      "inputs": [
        {
          "internalType": "uint256",
          "name": "repayAmount",
          "type": "uint256"
        }
      ],
      "name": "repayBorrow",
      "outputs": [
        {
          "internalType": "uint256",
          "name": "",
          "type": "uint256"
        }
      ],
      "payable": false,
      "stateMutability": "nonpayable",
      "type": "function"
    },
    {
      "constant": false,
      "inputs": [
        {
          "internalType": "address",
          "name": "borrower",
          "type": "address"
        },
        {
          "internalType": "uint256",
          "name": "repayAmount",
          "type": "uint256"
        }
      ],
      "name": "repayBorrowBehalf",
      "outputs": [
        {
          "internalType": "uint256",
          "name": "",
          "type": "uint256"
        }
      ],
      "payable": false,
      "stateMutability": "nonpayable",
      "type": "function"
    },
    {
      "constant": false,
      "inputs": [
        {
          "internalType": "address",
          "name": "borrower",
          "type": "address"
        },
        {
          "internalType": "uint256",
          "name": "repayAmount",
          "type": "uint256"
        },
        {
          "internalType": "contract CTokenInterface",
          "name": "cTokenCollateral",
          "type": "address"
        }
      ],
      "name": "liquidateBorrow",
      "outputs": [
        {
          "internalType": "uint256",
          "name": "",
          "type": "uint256"
        }
      ],
      "payable": false,
      "stateMutability": "nonpayable",
      "type": "function"
    }
  ],
  "bytecode": "0x6080604052615be7806100136000396000f3fe608060405234801561001057600080fd5b50600436106102e55760003560e01c806373acee981161018f57806373acee98146104e5578063770b1404146104ed578063852a12e3146105005780638ae3819e146105135780638f840ddd1461052657806395d89b411461052e57806395dd91931461053657806399d8c1b4146105495780639af4ee7e1461055c578063a0712d6814610564578063a4681cc614610577578063a6afed951461058a578063a9059cbb14610592578063aa5af0fd146105a5578063ae9d70b0146105ad578063b2a02ff1146105b5578063b71d1a0c146105c8578063bd6d894d146105db578063c37f68e2146105e3578063c4aa2617146105f6578063c5ebeaec146105fe578063db006a7514610611578063dd62ed3e14610624578063e9c714f214610637578063f10684541461063f578063f2b3abbd14610647578063f3fdb15a1461065a578063f5e3c46214610662578063f851a44014610675578063f8f9da281461067d578063fca7820b14610685578063fe9c44ae14610698576102e5565b806306fdde03146102ea578063095ea7b3146103085780630e75270214610328578063109d0af814610348578063153ab5051461035d578063173b99041461036757806317bfdfbc1461036f57806318160ddd14610382578063182df0f51461038a5780631a31d4651461039257806323b872dd146103a55780632608f818146103b857806326782247146103cb578063313ce567146103d35780633af9e669146103e85780633b1d21a2146103fb5780633e941010146104035780634062e218146104165780634576b5db1461041e57806347bd371814610431578063482c1eb1146104395780635672ab551461044c57806356e67728146104545780635c60da1b146104675780635fe3b5671461046f578063601a0bf114610484578063649923e21461049757806369cb860d146104af5780636c540baf146104c25780636f307dc3146104ca57806370a08231146104d2575b600080fd5b6102f26106a0565b6040516102ff91906157d1565b60405180910390f35b61031b610316366004614aeb565b61072d565b6040516102ff919061579a565b61033b610336366004614cdd565b61079b565b6040516102ff91906159b2565b6103506107c3565b6040516102ff91906155e1565b6103656107d2565b005b61033b610803565b61033b61037d36600461491b565b610809565b61033b610879565b61033b61087f565b6103656103a0366004614a21565b6108c3565b61031b6103b33660046149de565b61096f565b61033b6103c6366004614aeb565b6109bf565b6103506109d9565b6103db6109e8565b6040516102ff9190615a55565b61033b6103f636600461491b565b6109f1565b61033b610a72565b61033b610411366004614cdd565b610a81565b610350610a8c565b61033b61042c366004614bb0565b610a9b565b61033b610bc0565b61033b61044736600461491b565b610bc6565b610350610bd8565b610365610462366004614b7c565b610be7565b610350610f38565b610477610f47565b6040516102ff91906157a8565b61033b610492366004614cdd565b610f56565b61049f610fcf565b6040516102ff9493929190615a3a565b61033b6104bd36600461491b565b610fde565b61033b611245565b61035061124b565b61033b6104e036600461491b565b61125a565b61033b611275565b61033b6104fb36600461491b565b6112db565b61033b61050e366004614cdd565b6112ed565b61033b61052136600461491b565b6112f8565b61033b61130a565b6102f2611310565b61033b61054436600461491b565b611368565b610365610557366004614bce565b6113a6565b61031b6114dc565b61033b610572366004614cdd565b6114e1565b61033b61058536600461491b565b6114f5565b61033b611507565b61031b6105a0366004614aeb565b6117e9565b61033b611838565b61033b61183e565b61033b6105c33660046149de565b6118d2565b61033b6105d636600461491b565b611921565b61033b61199a565b61049f6105f136600461491b565b611a06565b610350611a9b565b61033b61060c366004614cdd565b611aaa565b61033b61061f366004614cdd565b611ac4565b61033b6106323660046149a4565b611acf565b61033b611afa565b61033b611bf9565b61033b610655366004614bb0565b611bff565b610477611c39565b61033b610670366004614b1b565b611c48565b610350611c62565b61033b611c76565b61033b610693366004614cdd565b611cb6565b61031b611d12565b60018054604080516020600284861615610100026000190190941693909304601f810184900484028201840190925281815292918301828280156107255780601f106106fa57610100808354040283529160200191610725565b820191906000526020600020905b81548152906001019060200180831161070857829003601f168201915b505050505081565b336000818152600f602090815260408083206001600160a01b03871680855292528083208590555191929182907f8c5be1e5ebec7d5bd14f71427d1e84f3dd0314c0f7b2291e5b200ac8c7c3b925906107879087906159b2565b60405180910390a360019150505b92915050565b600060405162461bcd60e51b81526004016107b590615872565b60405180910390fd5b919050565b6017546001600160a01b031681565b60035461010090046001600160a01b031633146108015760405162461bcd60e51b81526004016107b590615852565b565b60085481565b6000805460ff1661082c5760405162461bcd60e51b81526004016107b5906158d2565b6000805460ff1916815561083e611507565b1461085b5760405162461bcd60e51b81526004016107b5906157e2565b61086482611368565b90505b6000805460ff19166001179055919050565b600d5481565b600080600061088c611d17565b9092509050600082600381111561089f57fe5b146108bc5760405162461bcd60e51b81526004016107b590615962565b9150505b90565b6108d18686868686866113a6565b601180546001600160a01b0319166001600160a01b038981169190911791829055604080516318160ddd60e01b8152905192909116916318160ddd91600480820192602092909190829003018186803b15801561092d57600080fd5b505afa158015610941573d6000803e3d6000fd5b505050506040513d601f19601f820116820180604052506109659190810190614cfb565b5050505050505050565b6000805460ff166109925760405162461bcd60e51b81526004016107b5906158d2565b6000805460ff191681556109a833868686611dc6565b1490506000805460ff191660011790559392505050565b600060405162461bcd60e51b81526004016107b590615942565b6004546001600160a01b031681565b60035460ff1681565b60006109fb614717565b6040518060200160405280610a0e61199a565b90526001600160a01b0384166000908152600e6020526040812054919250908190610a3a908490611dff565b90925090506000826003811115610a4d57fe5b14610a6a5760405162461bcd60e51b81526004016107b590615802565b949350505050565b6000610a7c611e53565b905090565b600061079582611ee7565b6016546001600160a01b031681565b60035460009061010090046001600160a01b03163314610ac857610ac16001603f611f59565b90506107be565b60055460408051623f1ee960e11b815290516001600160a01b0392831692851691627e3dd2916004808301926020929190829003018186803b158015610b0d57600080fd5b505afa158015610b21573d6000803e3d6000fd5b505050506040513d601f19601f82011682018060405250610b459190810190614b5e565b610b615760405162461bcd60e51b81526004016107b590615882565b600580546001600160a01b0319166001600160a01b0385161790556040517f7ac369dbd14fa5ea3f473ed67cc9d598964a77501540ba6751eb0b3decf5870d90610bae90839086906157b6565b60405180910390a160005b9392505050565b600b5481565b601f6020526000908152604090205481565b6014546001600160a01b031681565b610bf081611fb9565b600080600083806020019051610c099190810190614957565b601380546001600160a01b0319166001600160a01b03858116919091179182905560408051635672ab5560e01b815290519598509396509194501691635672ab5591600480820192602092909190829003018186803b158015610c6b57600080fd5b505afa158015610c7f573d6000803e3d6000fd5b505050506040513d601f19601f82011682018060405250610ca39190810190614939565b601480546001600160a01b03199081166001600160a01b03938416179091556016805490911684831617905560055460408051634e8dad0560e11b815290519190921691639d1b5a0a916004808301926020929190829003018186803b158015610d0c57600080fd5b505afa158015610d20573d6000803e3d6000fd5b505050506040513d601f19601f82011682018060405250610d449190810190614939565b601780546001600160a01b0319166001600160a01b0392909216919091179055610d6c61472a565b601354604051631526fe2760e01b81526001600160a01b0390911690631526fe2790610d9c9085906004016159b2565b60206040518083038186803b158015610db457600080fd5b505afa158015610dc8573d6000803e3d6000fd5b505050506040513d601f19601f82011682018060405250610dec9190810190614ca1565b60115481519192506001600160a01b03918216911614610e1e5760405162461bcd60e51b81526004016107b5906158a2565b601582905560115460405163095ea7b360e01b81526001600160a01b039091169063095ea7b390610e579087906000199060040161573d565b602060405180830381600087803b158015610e7157600080fd5b505af1158015610e85573d6000803e3d6000fd5b505050506040513d601f19601f82011682018060405250610ea99190810190614b5e565b5060145460405163095ea7b360e01b81526001600160a01b039091169063095ea7b390610ede9086906000199060040161573d565b602060405180830381600087803b158015610ef857600080fd5b505af1158015610f0c573d6000803e3d6000fd5b505050506040513d601f19601f82011682018060405250610f309190810190614b5e565b505050505050565b6012546001600160a01b031681565b6005546001600160a01b031681565b6000805460ff16610f795760405162461bcd60e51b81526004016107b5906158d2565b6000805460ff19168155610f8b611507565b90508015610fb157610fa9816010811115610fa257fe5b6030611f59565b915050610867565b610fba83611feb565b9150506000805460ff19166001179055919050565b601854601954601a54601b5484565b6000610fe86120ef565b610ff06121f6565b610ff98261236b565b6001600160a01b0382166000908152601d602052604090205480156111705760165460405163db006a7560e01b81526000916001600160a01b03169063db006a75906110499085906004016159b2565b602060405180830381600087803b15801561106357600080fd5b505af1158015611077573d6000803e3d6000fd5b505050506040513d601f19601f8201168201806040525061109b9190810190614cfb565b905080156110bb5760405162461bcd60e51b81526004016107b590615912565b6018546110c890836125ea565b6018556014546001600160a01b031663a9059cbb856110e5612624565b6040518363ffffffff1660e01b815260040161110292919061573d565b602060405180830381600087803b15801561111c57600080fd5b505af1158015611130573d6000803e3d6000fd5b505050506040513d601f19601f820116820180604052506111549190810190614b5e565b50506001600160a01b0383166000908152601d60205260408120555b6001600160a01b0383166000908152601f6020526040902054801561123e57601a5461119c90826125ea565b601a5560175460405163a9059cbb60e01b81526001600160a01b039091169063a9059cbb906111d1908790859060040161573d565b602060405180830381600087803b1580156111eb57600080fd5b505af11580156111ff573d6000803e3d6000fd5b505050506040513d601f19601f820116820180604052506112239190810190614b5e565b506001600160a01b0384166000908152601f60205260408120555b5092915050565b60095481565b6011546001600160a01b031681565b6001600160a01b03166000908152600e602052604090205490565b6000805460ff166112985760405162461bcd60e51b81526004016107b5906158d2565b6000805460ff191681556112aa611507565b146112c75760405162461bcd60e51b81526004016107b5906157e2565b50600b546000805460ff1916600117905590565b601e6020526000908152604090205481565b600061079582612655565b601c6020526000908152604090205481565b600c5481565b6002805460408051602060018416156101000260001901909316849004601f810184900484028201840190925281815292918301828280156107255780601f106106fa57610100808354040283529160200191610725565b6000806000611376846126b4565b9092509050600082600381111561138957fe5b14610bb95760405162461bcd60e51b81526004016107b5906158b2565b60035461010090046001600160a01b031633146113d55760405162461bcd60e51b81526004016107b5906157f2565b6009541580156113e55750600a54155b6114015760405162461bcd60e51b81526004016107b590615812565b6007849055836114235760405162461bcd60e51b81526004016107b590615832565b600061142e87610a9b565b9050801561144e5760405162461bcd60e51b81526004016107b590615922565b611456612768565b600955670de0b6b3a7640000600a5561146e8661276c565b9050801561148e5760405162461bcd60e51b81526004016107b590615842565b83516114a190600190602087019061473c565b5082516114b590600290602086019061473c565b50506003805460ff90921660ff199283161790556000805490911660011790555050505050565b600090565b6000806114ed836128a2565b509392505050565b601d6020526000908152604090205481565b600080611512612768565b6009549091508082141561152b576000925050506108c0565b6000611535611e53565b600b54600c54600a546006546040516315f2405360e01b81529495509293919290916000916001600160a01b0316906315f240539061157c90889088908890600401615a2c565b60206040518083038186803b15801561159457600080fd5b505afa1580156115a8573d6000803e3d6000fd5b505050506040513d601f19601f820116820180604052506115cc9190810190614cfb565b905065048c273950008111156115f45760405162461bcd60e51b81526004016107b5906158e2565b6000806116018989612928565b9092509050600082600381111561161457fe5b146116315760405162461bcd60e51b81526004016107b590615902565b611639614717565b60008060008061165760405180602001604052808a8152508761294b565b9097509450600087600381111561166a57fe5b1461169c576116876009600689600381111561168257fe5b6129b3565b9e5050505050505050505050505050506108c0565b6116a6858c611dff565b909750935060008760038111156116b957fe5b146116d1576116876009600189600381111561168257fe5b6116db848c612a12565b909750925060008760038111156116ee57fe5b14611706576116876009600489600381111561168257fe5b6117216040518060200160405280600854815250858c612a38565b9097509150600087600381111561173457fe5b1461174c576116876009600589600381111561168257fe5b611757858a8b612a38565b9097509050600087600381111561176a57fe5b14611782576116876009600389600381111561168257fe5b60098e9055600a819055600b839055600c8290556040517f4dec04e750ca11537cabcd8a9eab06494de08da3735bc8871cd41250e190bc04906117cc908e90879085908890615a3a565b60405180910390a160009e50505050505050505050505050505090565b6000805460ff1661180c5760405162461bcd60e51b81526004016107b5906158d2565b6000805460ff1916815561182233338686611dc6565b1490506000805460ff1916600117905592915050565b600a5481565b6006546000906001600160a01b031663b816881661185a611e53565b600b54600c546008546040518563ffffffff1660e01b81526004016118829493929190615a3a565b60206040518083038186803b15801561189a57600080fd5b505afa1580156118ae573d6000803e3d6000fd5b505050506040513d601f19601f82011682018060405250610a7c9190810190614cfb565b6000805460ff166118f55760405162461bcd60e51b81526004016107b5906158d2565b6000805460ff1916905561190b33858585612a94565b90506000805460ff191660011790559392505050565b60035460009061010090046001600160a01b0316331461194757610ac160016045611f59565b600480546001600160a01b038481166001600160a01b03198316179092556040519116907fca4f2f25d0898edd99413412fb94012f9e54ec8142f9b093e7720646a95b16a990610bae9083908690615632565b6000805460ff166119bd5760405162461bcd60e51b81526004016107b5906158d2565b6000805460ff191681556119cf611507565b146119ec5760405162461bcd60e51b81526004016107b5906157e2565b6119f461087f565b90506000805460ff1916600117905590565b6001600160a01b0381166000908152600e6020526040812054819081908190818080611a31896126b4565b935090506000816003811115611a4357fe5b14611a615760095b975060009650869550859450611a949350505050565b611a69611d17565b925090506000816003811115611a7b57fe5b14611a87576009611a4b565b5060009650919450925090505b9193509193565b6013546001600160a01b031681565b600060405162461bcd60e51b81526004016107b590615862565b600061079582612bc6565b6001600160a01b039182166000908152600f6020908152604080832093909416825291909152205490565b6004546000906001600160a01b031633141580611b15575033155b15611b2d57611b2660016000611f59565b90506108c0565b60038054600480546001600160a01b03818116610100818102610100600160a81b0319871617968790556001600160a01b03199093169093556040519382900481169492937ff9ffabca9c8276e99321725bcb43fb076a6c66a54b7f21c4e8146d8519b417dc93611ba393879391041690615632565b60405180910390a16004546040517fca4f2f25d0898edd99413412fb94012f9e54ec8142f9b093e7720646a95b16a991611be89184916001600160a01b031690615632565b60405180910390a160009250505090565b60155481565b600080611c0a611507565b90508015611c3057611c28816010811115611c2157fe5b6040611f59565b9150506107be565b610bb98361276c565b6006546001600160a01b031681565b600060405162461bcd60e51b81526004016107b5906158c2565b60035461010090046001600160a01b031681565b6006546000906001600160a01b03166315f24053611c92611e53565b600b54600c546040518463ffffffff1660e01b815260040161188293929190615a2c565b6000805460ff16611cd95760405162461bcd60e51b81526004016107b5906158d2565b6000805460ff19168155611ceb611507565b90508015611d0957610fa9816010811115611d0257fe5b6046611f59565b610fba83612c1e565b600181565b600d54600090819080611d3257505060075460009150611dc2565b6000611d3c611e53565b90506000611d48614717565b6000611d5984600b54600c54612cb6565b935090506000816003811115611d6b57fe5b14611d8057955060009450611dc29350505050565b611d8a8386612cf4565b925090506000816003811115611d9c57fe5b14611db157955060009450611dc29350505050565b5051600095509350611dc292505050565b9091565b6000611dd06120ef565b611dd86121f6565b611de18461236b565b611dea8361236b565b611df685858585612da4565b95945050505050565b6000806000611e0c614717565b611e16868661294b565b90925090506000826003811115611e2957fe5b14611e3a5750915060009050611e4c565b6000611e458261309b565b9350935050505b9250929050565b6000611e5d614717565b6013546015546040516393f1a40b60e01b81526001600160a01b03909216916393f1a40b91611e909130906004016159c0565b60206040518083038186803b158015611ea857600080fd5b505afa158015611ebc573d6000803e3d6000fd5b505050506040513d601f19601f82011682018060405250611ee09190810190614cbf565b5191505090565b6000805460ff16611f0a5760405162461bcd60e51b81526004016107b5906158d2565b6000805460ff19168155611f1c611507565b90508015611f3a57610fa9816010811115611f3357fe5b604e611f59565b611f43836130aa565b509150506000805460ff19166001179055919050565b60007f45b96fe442630264581b197e84bbada861235052c5a1aadfff9ea4e40a969aa0836010811115611f8857fe5b836050811115611f9457fe5b6000604051611fa593929190615a04565b60405180910390a1826010811115610bb957fe5b60035461010090046001600160a01b03163314611fe85760405162461bcd60e51b81526004016107b5906159a2565b50565b600354600090819061010090046001600160a01b0316331461201357611c2860016031611f59565b61201b612768565b6009541461202f57611c28600a6033611f59565b82612038611e53565b101561204a57611c28600e6032611f59565b600c5483111561206057611c2860026034611f59565b50600c54828103908111156120875760405162461bcd60e51b81526004016107b590615992565b600c8190556003546120a79061010090046001600160a01b031684613159565b7f3bad0c59cf2f06e7314077049f48a93578cd16f5ef92329f1dab1420a99c177e600360019054906101000a90046001600160a01b03168483604051610bae9392919061560a565b601354601554604051631c57762b60e31b81526001600160a01b039092169163e2bbb15891612123916000906004016159db565b600060405180830381600087803b15801561213d57600080fd5b505af1158015612151573d6000803e3d6000fd5b50505050600061215f612624565b11156121ee576016546001600160a01b031663a0712d6861217e612624565b6040518263ffffffff1660e01b815260040161219a91906159b2565b602060405180830381600087803b1580156121b457600080fd5b505af11580156121c8573d6000803e3d6000fd5b505050506040513d601f19601f820116820180604052506121ec9190810190614cfb565b505b610801613317565b6000612200613410565b90506000612213826018600001546125ea565b90506000306001600160a01b03166318160ddd6040518163ffffffff1660e01b815260040160206040518083038186803b15801561225057600080fd5b505afa158015612264573d6000803e3d6000fd5b505050506040513d601f19601f820116820180604052506122889190810190614cfb565b9050612292614717565b600082116122af57604051806020016040528060008152506122b9565b6122b98383613441565b90506122c3614717565b604080516020810190915260195481526122dd908361347e565b905060006122e96134a3565b905060006122fc826018600201546125ea565b9050612306614717565b60008611612323576040518060200160405280600081525061232d565b61232d8287613441565b9050612337614717565b6040805160208101909152601b548152612351908361347e565b945160195550505060189590955551601b55505050601a55565b612373614717565b506040805160208101909152601954815261238c614717565b5060408051602080820183526001600160a01b0385166000908152601c909152919091205481526123bb614717565b6123c583836134d4565b8051909150156124a6576040516370a0823160e01b815260009030906370a08231906123f59088906004016155e1565b60206040518083038186803b15801561240d57600080fd5b505afa158015612421573d6000803e3d6000fd5b505050506040513d601f19601f820116820180604052506124459190810190614cfb565b9050600061245382846134f9565b6001600160a01b0387166000908152601d60205260409020549091506124799082613527565b6001600160a01b0387166000908152601d60209081526040808320939093558751601c9091529190205550505b6124ae614717565b506040805160208101909152601b5481526124c7614717565b5060408051602080820183526001600160a01b0388166000908152601e909152919091205481526124f6614717565b61250083836134d4565b8051909150156125e1576040516370a0823160e01b815260009030906370a0823190612530908b906004016155e1565b60206040518083038186803b15801561254857600080fd5b505afa15801561255c573d6000803e3d6000fd5b505050506040513d601f19601f820116820180604052506125809190810190614cfb565b9050600061258e82846134f9565b6001600160a01b038a166000908152601f60205260409020549091506125b49082613527565b6001600160a01b038a166000908152601f60209081526040808320939093558751601e9091529190205550505b50505050505050565b6000610bb98383604051806040016040528060158152602001747375627472616374696f6e20756e646572666c6f7760581b81525061355d565b6014546040516370a0823160e01b81526000916001600160a01b0316906370a08231906118829030906004016155e1565b6000805460ff166126785760405162461bcd60e51b81526004016107b5906158d2565b6000805460ff1916815561268a611507565b905080156126a857610fa98160108111156126a157fe5b6027611f59565b610fba33600085613589565b6001600160a01b0381166000908152601060205260408120805482918291829182916126eb57506000945084935061276392505050565b6126fb8160000154600a54613a0d565b9094509250600084600381111561270e57fe5b14612723575091935060009250612763915050565b612731838260010154613a4c565b9094509150600084600381111561274457fe5b14612759575091935060009250612763915050565b5060009450925050505b915091565b4390565b600354600090819061010090046001600160a01b0316331461279457611c2860016042611f59565b61279c612768565b600954146127b057611c28600a6041611f59565b600660009054906101000a90046001600160a01b03169050826001600160a01b0316632191f92a6040518163ffffffff1660e01b815260040160206040518083038186803b15801561280157600080fd5b505afa158015612815573d6000803e3d6000fd5b505050506040513d601f19601f820116820180604052506128399190810190614b5e565b6128555760405162461bcd60e51b81526004016107b590615882565b600680546001600160a01b0319166001600160a01b0385161790556040517fedffc32e068c7c95dfd4bdfd5c4d939a084d6b11c4199eac8436ed234d72f92690610bae90839086906157b6565b60008054819060ff166128c75760405162461bcd60e51b81526004016107b5906158d2565b6000805460ff191681556128d9611507565b90508015612904576128f78160108111156128f057fe5b601e611f59565b9250600091506129149050565b61290e3385613a77565b92509250505b6000805460ff191660011790559092909150565b60008083831161293f575060009050818303611e4c565b50600390506000611e4c565b6000612955614717565b600080612966866000015186613a0d565b9092509050600082600381111561297957fe5b1461299857506040805160208101909152600081529092509050611e4c565b60408051602081019091529081526000969095509350505050565b60007f45b96fe442630264581b197e84bbada861235052c5a1aadfff9ea4e40a969aa08460108111156129e257fe5b8460508111156129ee57fe5b846040516129fe93929190615a2c565b60405180910390a1836010811115610a6a57fe5b600080838301848110612a2a57600092509050611e4c565b506002915060009050611e4c565b6000806000612a45614717565b612a4f878761294b565b90925090506000826003811115612a6257fe5b14612a735750915060009050612a8c565b612a85612a7f8261309b565b86612a12565b9350935050505b935093915050565b6000612a9e6120ef565b612aa66121f6565b612aaf8461236b565b612ab88361236b565b600554604080516306995d7d60e41b815290516000926001600160a01b031691636995d7d0916004808301926020929190829003018186803b158015612afd57600080fd5b505afa158015612b11573d6000803e3d6000fd5b505050506040513d601f19601f82011682018060405250612b359190810190614c83565b6001600160a01b031663ee9e81996040518163ffffffff1660e01b815260040160206040518083038186803b158015612b6d57600080fd5b505afa158015612b81573d6000803e3d6000fd5b505050506040513d601f19601f82011682018060405250612ba59190810190614939565b9050612bb08161236b565b612bbc86868686613e4f565b9695505050505050565b6000805460ff16612be95760405162461bcd60e51b81526004016107b5906158d2565b6000805460ff19168155612bfb611507565b90508015612c1257610fa98160108111156126a157fe5b610fba33846000613589565b60035460009061010090046001600160a01b03163314612c4457610ac160016047611f59565b612c4c612768565b60095414612c6057610ac1600a6048611f59565b670de0b6b3a7640000821115612c7c57610ac160026049611f59565b60088054908390556040517faaa68312e2ea9d50e16af5068410ab56e1a1fd06037b1a35664812c30f82146090610bae90839086906159f6565b600080600080612cc68787612a12565b90925090506000826003811115612cd957fe5b14612cea5750915060009050612a8c565b612a858186612928565b6000612cfe614717565b600080612d1386670de0b6b3a7640000613a0d565b90925090506000826003811115612d2657fe5b14612d4557506040805160208101909152600081529092509050611e4c565b600080612d528388613a4c565b90925090506000826003811115612d6557fe5b14612d8757506040805160208101909152600081529094509250611e4c915050565b604080516020810190915290815260009890975095505050505050565b6005546040516317b9b84b60e31b815260009182916001600160a01b039091169063bdcdc25890612ddf9030908990899089906004016156df565b602060405180830381600087803b158015612df957600080fd5b505af1158015612e0d573d6000803e3d6000fd5b505050506040513d601f19601f82011682018060405250612e319190810190614cfb565b90508015612e4e57612e466003604a836129b3565b915050610a6a565b836001600160a01b0316856001600160a01b03161415612e7457612e466002604b611f59565b60006001600160a01b038781169087161415612e935750600019612ebb565b506001600160a01b038086166000908152600f60209081526040808320938a16835292905220545b600080600080612ecb8589612928565b90945092506000846003811115612ede57fe5b14612efc57612eef6009604b611f59565b9650505050505050610a6a565b6001600160a01b038a166000908152600e6020526040902054612f1f9089612928565b90945091506000846003811115612f3257fe5b14612f4357612eef6009604c611f59565b6001600160a01b0389166000908152600e6020526040902054612f669089612a12565b90945090506000846003811115612f7957fe5b14612f8a57612eef6009604d611f59565b6001600160a01b03808b166000908152600e6020526040808220859055918b168152208190556000198514612fe2576001600160a01b03808b166000908152600f60209081526040808320938f168352929052208390555b886001600160a01b03168a6001600160a01b0316600080516020615b858339815191528a60405161301391906159b2565b60405180910390a360055460405163352b4a3f60e11b81526001600160a01b0390911690636a56947e906130519030908e908e908e906004016156df565b600060405180830381600087803b15801561306b57600080fd5b505af115801561307f573d6000803e3d6000fd5b506000925061308c915050565b9b9a5050505050505050505050565b51670de0b6b3a7640000900490565b6000806000806130b8612768565b600954146130d7576130cc600a604f611f59565b935091506127639050565b6130e133866143c2565b905080600c54019150600c5482101561310c5760405162461bcd60e51b81526004016107b590615822565b600c8290556040517fa91e67c5ea634cd43a12c5a482724b03de01e85ca68702a53d0c2f45cb7c1dc5906131459033908490869061560a565b60405180910390a160009350915050915091565b601354601554604051630441a3e760e41b81526001600160a01b039092169163441a3e709161318c9185906004016159f6565b600060405180830381600087803b1580156131a657600080fd5b505af11580156131ba573d6000803e3d6000fd5b5050505060006131c8612624565b1115613257576016546001600160a01b031663a0712d686131e7612624565b6040518263ffffffff1660e01b815260040161320391906159b2565b602060405180830381600087803b15801561321d57600080fd5b505af1158015613231573d6000803e3d6000fd5b505050506040513d601f19601f820116820180604052506132559190810190614cfb565b505b61325f613317565b6132676121f6565b6132708261236b565b60115460405163a9059cbb60e01b81526001600160a01b0390911690819063a9059cbb906132a490869086906004016155ef565b602060405180830381600087803b1580156132be57600080fd5b505af11580156132d2573d6000803e3d6000fd5b505050506040513d601f19601f820116820180604052506132f69190810190614b5e565b6133125760405162461bcd60e51b81526004016107b5906158f2565b505050565b60408051600180825281830190925260609160208083019080388339019050509050308160008151811061334757fe5b6001600160a01b0390921660209283029190910190910152604080516001808252818301909252606091816020016020820280388339505060165482519293506001600160a01b03169183915060009061339d57fe5b6001600160a01b0392831660209182029290920101526005546040516334086fd360e11b8152911690636810dfa6906133e29085908590600090600190600401615759565b600060405180830381600087803b1580156133fc57600080fd5b505af1158015610f30573d6000803e3d6000fd5b6016546040516370a0823160e01b81526000916001600160a01b0316906370a08231906118829030906004016155e1565b613449614717565b604051806020016040528061347561346f866a0c097ce7bc90715b34b9f160241b614586565b856145c2565b90529392505050565b613486614717565b604051806020016040528061347585600001518560000151613527565b6017546040516370a0823160e01b81526000916001600160a01b0316906370a08231906118829030906004016155e1565b6134dc614717565b6040518060200160405280613475856000015185600001516125ea565b60006a0c097ce7bc90715b34b9f160241b613518848460000151614586565b8161351f57fe5b049392505050565b6000610bb98383604051806040016040528060118152602001706164646974696f6e206f766572666c6f7760781b8152506145f5565b600081848411156135815760405162461bcd60e51b81526004016107b591906157d1565b505050900390565b6000821580613596575081155b6135b25760405162461bcd60e51b81526004016107b590615982565b6135ba6147ba565b6135c2611d17565b60408301819052602083018260038111156135d957fe5b60038111156135e457fe5b90525060009050816020015160038111156135fb57fe5b1461361f576136176009602b8360200151600381111561168257fe5b915050610bb9565b83156136a05760608101849052604080516020810182529082015181526136469085611dff565b608083018190526020830182600381111561365d57fe5b600381111561366857fe5b905250600090508160200151600381111561367f57fe5b1461369b57613617600960298360200151600381111561168257fe5b613719565b6136bc8360405180602001604052808460400151815250614625565b60608301819052602083018260038111156136d357fe5b60038111156136de57fe5b90525060009050816020015160038111156136f557fe5b14613711576136176009602a8360200151600381111561168257fe5b608081018390525b600554606082015160405163eabe7d9160e01b81526000926001600160a01b03169163eabe7d91916137529130918b919060040161564d565b602060405180830381600087803b15801561376c57600080fd5b505af1158015613780573d6000803e3d6000fd5b505050506040513d601f19601f820116820180604052506137a49190810190614cfb565b905080156137c2576137b960036028836129b3565b92505050610bb9565b6137ca612768565b600954146137de576137b9600a602c611f59565b6137ee600d548360600151612928565b60a084018190526020840182600381111561380557fe5b600381111561381057fe5b905250600090508260200151600381111561382757fe5b14613843576137b96009602e8460200151600381111561168257fe5b6001600160a01b0386166000908152600e6020526040902054606083015161386b9190612928565b60c084018190526020840182600381111561388257fe5b600381111561388d57fe5b90525060009050826020015160038111156138a457fe5b146138c0576137b96009602d8460200151600381111561168257fe5b81608001516138cd611e53565b10156138df576137b9600e602f611f59565b60a0820151600d5560c08201516001600160a01b0387166000908152600e60205260409020556080820151613915908790613159565b306001600160a01b0316866001600160a01b0316600080516020615b85833981519152846060015160405161394a91906159b2565b60405180910390a3608082015160608301516040517fe5b754fb1abb7f01b499791d0b820ae3b6af3424ac1c59768edb53f4ec31a9299261398c928a9261560a565b60405180910390a1600554608083015160608401516040516351dff98960e01b81526001600160a01b03909316926351dff989926139d29230928c929190600401615668565b600060405180830381600087803b1580156139ec57600080fd5b505af1158015613a00573d6000803e3d6000fd5b5060009250612bbc915050565b60008083613a2057506000905080611e4c565b83830283858281613a2d57fe5b0414613a4157506002915060009050611e4c565b600092509050611e4c565b60008082613a605750600190506000611e4c565b6000838581613a6b57fe5b04915091509250929050565b600554604051634ef4c3e160e01b8152600091829182916001600160a01b031690634ef4c3e190613ab090309089908990600401615707565b602060405180830381600087803b158015613aca57600080fd5b505af1158015613ade573d6000803e3d6000fd5b505050506040513d601f19601f82011682018060405250613b029190810190614cfb565b90508015613b2457613b176003601f836129b3565b925060009150611e4c9050565b613b2c612768565b60095414613b4057613b17600a6022611f59565b613b486147ba565b613b50611d17565b6040830181905260208301826003811115613b6757fe5b6003811115613b7257fe5b9052506000905081602001516003811115613b8957fe5b14613bb357613ba5600960218360200151600381111561168257fe5b935060009250611e4c915050565b613bbd86866143c2565b60c0820181905260408051602081018252908301518152613bde9190614625565b6060830181905260208301826003811115613bf557fe5b6003811115613c0057fe5b9052506000905081602001516003811115613c1757fe5b14613c345760405162461bcd60e51b81526004016107b590615952565b613c44600d548260600151612a12565b6080830181905260208301826003811115613c5b57fe5b6003811115613c6657fe5b9052506000905081602001516003811115613c7d57fe5b14613c9a5760405162461bcd60e51b81526004016107b590615972565b6001600160a01b0386166000908152600e60205260409020546060820151613cc29190612a12565b60a0830181905260208301826003811115613cd957fe5b6003811115613ce457fe5b9052506000905081602001516003811115613cfb57fe5b14613d185760405162461bcd60e51b81526004016107b590615892565b6080810151600d5560a08101516001600160a01b0387166000908152600e6020526040908190209190915560c0820151606083015191517f4c209b5fc8ad50758f13e2e1088ba56a560dff690a1c6fef26394f4c03821c4f92613d7f928a9290919061574b565b60405180910390a1856001600160a01b0316306001600160a01b0316600080516020615b858339815191528360600151604051613dbc91906159b2565b60405180910390a360055460c082015160608301516040516341c728b960e01b81526001600160a01b03909316926341c728b992613e029230928c929190600401615722565b600060405180830381600087803b158015613e1c57600080fd5b505af1158015613e30573d6000803e3d6000fd5b5060009250613e3d915050565b8160c001519350935050509250929050565b60055460405163d02f735160e01b815260009182916001600160a01b039091169063d02f735190613e8c9030908a908a908a908a9060040161569d565b602060405180830381600087803b158015613ea657600080fd5b505af1158015613eba573d6000803e3d6000fd5b505050506040513d601f19601f82011682018060405250613ede9190810190614cfb565b90508015613ef357612e466003601b836129b3565b846001600160a01b0316846001600160a01b03161415613f1957612e466006601c611f59565b600080600080600080600560009054906101000a90046001600160a01b03166001600160a01b0316636995d7d06040518163ffffffff1660e01b815260040160206040518083038186803b158015613f7057600080fd5b505afa158015613f84573d6000803e3d6000fd5b505050506040513d601f19601f82011682018060405250613fa89190810190614c83565b6001600160a01b0316630cab477a8a600560009054906101000a90046001600160a01b03166001600160a01b0316634ada90af6040518163ffffffff1660e01b815260040160206040518083038186803b15801561400557600080fd5b505afa158015614019573d6000803e3d6000fd5b505050506040513d601f19601f8201168201806040525061403d9190810190614cfb565b6040518363ffffffff1660e01b815260040161405a9291906159f6565b604080518083038186803b15801561407157600080fd5b505afa158015614085573d6000803e3d6000fd5b505050506040513d601f19601f820116820180604052506140a99190810190614d19565b600554604080516306995d7d60e41b815290519295509293506000926001600160a01b0390911691636995d7d091600480820192602092909190829003018186803b1580156140f757600080fd5b505afa15801561410b573d6000803e3d6000fd5b505050506040513d601f19601f8201168201806040525061412f9190810190614c83565b6001600160a01b031663ee9e81996040518163ffffffff1660e01b815260040160206040518083038186803b15801561416757600080fd5b505afa15801561417b573d6000803e3d6000fd5b505050506040513d601f19601f8201168201806040525061419f9190810190614939565b6001600160a01b038c166000908152600e60205260409020549091506141c5908b612928565b909750955060008760038111156141d857fe5b146141ff576141f06009601a89600381111561168257fe5b98505050505050505050610a6a565b6001600160a01b038c166000908152600e60205260409020546142229083612a12565b9097509450600087600381111561423557fe5b1461424d576141f06009601989600381111561168257fe5b6001600160a01b0381166000908152600e60205260409020546142709084612a12565b9097509350600087600381111561428357fe5b1461429b576141f06009601989600381111561168257fe5b6001600160a01b03808c166000818152600e60205260408082208a90558f84168083528183208a905593851682529081902087905551600080516020615b85833981519152906142ec9086906159b2565b60405180910390a3806001600160a01b03168b6001600160a01b0316600080516020615b858339815191528560405161432591906159b2565b60405180910390a3600560009054906101000a90046001600160a01b03166001600160a01b0316636d35bf91308f8f8f8f6040518663ffffffff1660e01b815260040161437695949392919061569d565b600060405180830381600087803b15801561439057600080fd5b505af11580156143a4573d6000803e3d6000fd5b50600092506143b1915050565b9d9c50505050505050505050505050565b6011546040516323b872dd60e01b81526000916001600160a01b03169081906323b872dd906143f990879030908890600401615707565b602060405180830381600087803b15801561441357600080fd5b505af1158015614427573d6000803e3d6000fd5b505050506040513d601f19601f8201168201806040525061444b9190810190614b5e565b6144675760405162461bcd60e51b81526004016107b590615932565b601354601554604051631c57762b60e31b81526001600160a01b039092169163e2bbb1589161449a9187906004016159f6565b600060405180830381600087803b1580156144b457600080fd5b505af11580156144c8573d6000803e3d6000fd5b5050505060006144d6612624565b1115614565576016546001600160a01b031663a0712d686144f5612624565b6040518263ffffffff1660e01b815260040161451191906159b2565b602060405180830381600087803b15801561452b57600080fd5b505af115801561453f573d6000803e3d6000fd5b505050506040513d601f19601f820116820180604052506145639190810190614cfb565b505b61456d613317565b6145756121f6565b61457e8461236b565b509092915050565b6000610bb98383604051806040016040528060178152602001766d756c7469706c69636174696f6e206f766572666c6f7760481b81525061463c565b6000610bb983836040518060400160405280600e81526020016d646976696465206279207a65726f60901b815250614684565b6000838301828582101561461c5760405162461bcd60e51b81526004016107b591906157d1565b50949350505050565b6000806000614632614717565b611e1686866146b8565b6000831580614649575082155b1561465657506000610bb9565b8383028385828161466357fe5b0414839061461c5760405162461bcd60e51b81526004016107b591906157d1565b600081836146a55760405162461bcd60e51b81526004016107b591906157d1565b508284816146af57fe5b04949350505050565b60006146c2614717565b6000806146d7670de0b6b3a764000087613a0d565b909250905060008260038111156146ea57fe5b1461470957506040805160208101909152600081529092509050611e4c565b611e45818660000151612cf4565b6040518060200160405280600081525090565b60408051602081019091526000815290565b828054600181600116156101000203166002900490600052602060002090601f016020900481019282601f1061477d57805160ff19168380011785556147aa565b828001600101855582156147aa579182015b828111156147aa57825182559160200191906001019061478f565b506147b69291506147f8565b5090565b6040805160e0810190915280600081526020016000815260200160008152602001600081526020016000815260200160008152602001600081525090565b6108c091905b808211156147b657600081556001016147fe565b803561079581615b4c565b805161079581615b4c565b805161079581615b60565b600082601f83011261484457600080fd5b813561485761485282615a89565b615a63565b9150808252602083016020830185838301111561487357600080fd5b61487e838284615b06565b50505092915050565b803561079581615b69565b805161079581615b69565b6000602082840312156148af57600080fd5b6148b96020615a63565b905060006148c7848461481d565b82525092915050565b6000602082840312156148e257600080fd5b6148ec6020615a63565b905060006148c78484614905565b803561079581615b72565b805161079581615b72565b803561079581615b7b565b60006020828403121561492d57600080fd5b6000610a6a8484614812565b60006020828403121561494b57600080fd5b6000610a6a848461481d565b60008060006060848603121561496c57600080fd5b6000614978868661481d565b93505060206149898682870161481d565b925050604061499a86828701614905565b9150509250925092565b600080604083850312156149b757600080fd5b60006149c38585614812565b92505060206149d485828601614812565b9150509250929050565b6000806000606084860312156149f357600080fd5b60006149ff8686614812565b9350506020614a1086828701614812565b925050604061499a868287016148fa565b600080600080600080600060e0888a031215614a3c57600080fd5b6000614a488a8a614812565b9750506020614a598a828b01614887565b9650506040614a6a8a828b01614887565b9550506060614a7b8a828b016148fa565b94505060808801356001600160401b03811115614a9757600080fd5b614aa38a828b01614833565b93505060a08801356001600160401b03811115614abf57600080fd5b614acb8a828b01614833565b92505060c0614adc8a828b01614910565b91505092959891949750929550565b60008060408385031215614afe57600080fd5b6000614b0a8585614812565b92505060206149d4858286016148fa565b600080600060608486031215614b3057600080fd5b6000614b3c8686614812565b9350506020614b4d868287016148fa565b925050604061499a86828701614887565b600060208284031215614b7057600080fd5b6000610a6a8484614828565b600060208284031215614b8e57600080fd5b81356001600160401b03811115614ba457600080fd5b610a6a84828501614833565b600060208284031215614bc257600080fd5b6000610a6a8484614887565b60008060008060008060c08789031215614be757600080fd5b6000614bf38989614887565b9650506020614c0489828a01614887565b9550506040614c1589828a016148fa565b94505060608701356001600160401b03811115614c3157600080fd5b614c3d89828a01614833565b93505060808701356001600160401b03811115614c5957600080fd5b614c6589828a01614833565b92505060a0614c7689828a01614910565b9150509295509295509295565b600060208284031215614c9557600080fd5b6000610a6a8484614892565b600060208284031215614cb357600080fd5b6000610a6a848461489d565b600060208284031215614cd157600080fd5b6000610a6a84846148d0565b600060208284031215614cef57600080fd5b6000610a6a84846148fa565b600060208284031215614d0d57600080fd5b6000610a6a8484614905565b60008060408385031215614d2c57600080fd5b6000614d388585614905565b92505060206149d485828601614905565b6000614d558383614d78565b505060200190565b6000614d558383614e31565b614d7281615af0565b82525050565b614d7281615ac3565b6000614d8c82615ab6565b614d968185615aba565b9350614da183615ab0565b8060005b83811015614dcf578151614db98882614d49565b9750614dc483615ab0565b925050600101614da5565b509495945050505050565b6000614de582615ab6565b614def8185615aba565b9350614dfa83615ab0565b8060005b83811015614dcf578151614e128882614d5d565b9750614e1d83615ab0565b925050600101614dfe565b614d7281615ace565b614d7281615ad3565b614d7281615afb565b6000614e4e82615ab6565b614e588185615aba565b9350614e68818560208601615b12565b614e7181615b42565b9093019392505050565b6000614e88601683615aba565b751858d8dc9d59481a5b9d195c995cdd0819985a5b195960521b815260200192915050565b6000614eba602483615aba565b7f6f6e6c792061646d696e206d617920696e697469616c697a6520746865206d618152631c9ad95d60e21b602082015260400192915050565b6000614f00601f83615aba565b7f62616c616e636520636f756c64206e6f742062652063616c63756c6174656400815260200192915050565b6000614f39602383615aba565b7f6d61726b6574206d6179206f6e6c7920626520696e697469616c697a6564206f8152626e636560e81b602082015260400192915050565b6000614f7e602083615aba565b7f61646420726573657276657320756e6578706563746564206f766572666c6f77815260200192915050565b6000614fb7603083615aba565b7f696e697469616c2065786368616e67652072617465206d75737420626520677281526f32b0ba32b9103a3430b7103d32b9379760811b602082015260400192915050565b6000615009602283615aba565b7f73657474696e6720696e7465726573742072617465206d6f64656c206661696c815261195960f21b602082015260400192915050565b600061504d602d83615aba565b7f6f6e6c79207468652061646d696e206d61792063616c6c205f72657369676e4981526c36b83632b6b2b73a30ba34b7b760991b602082015260400192915050565b600061509c601b83615aba565b7a6c70746f6b656e2070726f68696269747320626f72726f77696e6760281b815260200192915050565b60006150d3601783615aba565b766c70746f6b656e2070726f68696269747320726570617960481b815260200192915050565b6000615106601c83615aba565b7b6d61726b6572206d6574686f642072657475726e65642066616c736560201b815260200192915050565b600061513e602b83615aba565b7f4d494e545f4e45575f4143434f554e545f42414c414e43455f43414c43554c4181526a151253d397d1905253115160aa1b602082015260400192915050565b600061518b601383615aba565b726d69736d6174636820756e6465726c79696e6760681b815260200192915050565b60006151ba603783615aba565b7f626f72726f7742616c616e636553746f7265643a20626f72726f7742616c616e81527618d954dd1bdc9959125b9d195c9b985b0819985a5b1959604a1b602082015260400192915050565b6000615213601b83615aba565b7a6c70746f6b656e2070726f686962697473206c697175696461746560281b815260200192915050565b600061524a600a83615aba565b691c994b595b9d195c995960b21b815260200192915050565b6000615270601c83615aba565b7b0c4dee4e4deee40e4c2e8ca40d2e640c2c4e6eae4c8d8f240d0d2ced60231b815260200192915050565b60006152a8602583615aba565b7f756e6578706563746564204549502d3230207472616e73666572206f7574207281526432ba3ab93760d91b602082015260400192915050565b60006152ef601f83615aba565b7f636f756c64206e6f742063616c63756c61746520626c6f636b2064656c746100815260200192915050565b6000615328601283615aba565b711c995919595b48199b591e0819985a5b195960721b815260200192915050565b6000615356601a83615aba565b791cd95d1d1a5b99c818dbdb5c1d1c9bdb1b195c8819985a5b195960321b815260200192915050565b600061538c602483615aba565b7f756e6578706563746564204549502d3230207472616e7366657220696e2072658152633a3ab93760e11b602082015260400192915050565b60006153d2602383615aba565b7f6c70746f6b656e2070726f686962697473207265706179426f72726f7742656881526230b63360e91b602082015260400192915050565b6000615417602083615aba565b7f4d494e545f45584348414e47455f43414c43554c4154494f4e5f4641494c4544815260200192915050565b6000615450603583615aba565b7f65786368616e67655261746553746f7265643a2065786368616e67655261746581527414dd1bdc9959125b9d195c9b985b0819985a5b1959605a1b602082015260400192915050565b60006154a7602883615aba565b7f4d494e545f4e45575f544f54414c5f535550504c595f43414c43554c4154494f8152671397d1905253115160c21b602082015260400192915050565b60006154f1603483615aba565b7f6f6e65206f662072656465656d546f6b656e73496e206f722072656465656d418152736d6f756e74496e206d757374206265207a65726f60601b602082015260400192915050565b6000615547602483615aba565b7f72656475636520726573657276657320756e657870656374656420756e646572815263666c6f7760e01b602082015260400192915050565b600061558d602d83615aba565b7f6f6e6c79207468652061646d696e206d61792063616c6c205f6265636f6d654981526c36b83632b6b2b73a30ba34b7b760991b602082015260400192915050565b614d72816108c0565b614d7281615aea565b602081016107958284614d78565b604081016155fd8285614d69565b610bb960208301846155cf565b606081016156188286614d69565b61562560208301856155cf565b610a6a60408301846155cf565b604081016156408285614d78565b610bb96020830184614d69565b6060810161565b8286614d78565b6156256020830185614d69565b608081016156768287614d78565b6156836020830186614d69565b61569060408301856155cf565b611df660608301846155cf565b60a081016156ab8288614d78565b6156b86020830187614d78565b6156c56040830186614d78565b6156d26060830185614d78565b612bbc60808301846155cf565b608081016156ed8287614d78565b6156fa6020830186614d78565b6156906040830185614d78565b606081016157158286614d78565b6156256020830185614d78565b608081016157308287614d78565b6156836020830186614d78565b604081016155fd8285614d78565b606081016156188286614d78565b6080808252810161576a8187614d81565b9050818103602083015261577e8186614dda565b905061578d6040830185614e28565b611df66060830184614e28565b602081016107958284614e28565b602081016107958284614e31565b604081016157c48285614e31565b610bb96020830184614e31565b60208082528101610bb98184614e43565b6020808252810161079581614e7b565b6020808252810161079581614ead565b6020808252810161079581614ef3565b6020808252810161079581614f2c565b6020808252810161079581614f71565b6020808252810161079581614faa565b6020808252810161079581614ffc565b6020808252810161079581615040565b602080825281016107958161508f565b60208082528101610795816150c6565b60208082528101610795816150f9565b6020808252810161079581615131565b602080825281016107958161517e565b60208082528101610795816151ad565b6020808252810161079581615206565b602080825281016107958161523d565b6020808252810161079581615263565b602080825281016107958161529b565b60208082528101610795816152e2565b602080825281016107958161531b565b6020808252810161079581615349565b602080825281016107958161537f565b60208082528101610795816153c5565b602080825281016107958161540a565b6020808252810161079581615443565b602080825281016107958161549a565b60208082528101610795816154e4565b602080825281016107958161553a565b6020808252810161079581615580565b6020810161079582846155cf565b604081016159ce82856155cf565b610bb96020830184614d78565b604081016159e982856155cf565b610bb96020830184614e3a565b604081016155fd82856155cf565b60608101615a1282866155cf565b615a1f60208301856155cf565b610a6a6040830184614e3a565b6060810161561882866155cf565b60808101615a4882876155cf565b61568360208301866155cf565b6020810161079582846155d8565b6040518181016001600160401b0381118282101715615a8157600080fd5b604052919050565b60006001600160401b03821115615a9f57600080fd5b506020601f91909101601f19160190565b60200190565b5190565b90815260200190565b600061079582615ade565b151590565b600061079582615ac3565b6001600160a01b031690565b60ff1690565b600061079582615ad3565b6000610795826108c0565b82818337506000910152565b60005b83811015615b2d578181015183820152602001615b15565b83811115615b3c576000848401525b50505050565b601f01601f191690565b615b5581615ac3565b8114611fe857600080fd5b615b5581615ace565b615b5581615ad3565b615b55816108c0565b615b5581615aea56feddf252ad1be2c89b69c2b068fc378daa952ba7f163c4a11628f55a4df523b3efa365627a7a72315820f5d8647dad88c2d0f4ccb35b94b563bf70a4527d68f5529623d4947c31c06eec6c6578706572696d656e74616cf564736f6c63430005100040",
  "source": "pragma solidity ^0.5.16;\npragma experimental ABIEncoderV2;\n\nimport \"./compound/CErc20Delegate.sol\";\nimport \"./compound/EIP20Interface.sol\";\nimport \"./Qstroller.sol\";\n\ninterface HecoPool {\n    struct PoolInfo {\n        address lpToken;\n    }\n\n    struct UserInfo {\n        uint256 amount;\n    }\n\n    function deposit(uint256, uint256) external;\n    function withdraw(uint256, uint256) external;\n    function mdx() view external returns (address);\n    function poolInfo(uint256) view external returns (PoolInfo memory);\n    function userInfo(uint256, address) view external returns (UserInfo memory);\n    function pending(uint256, address) external view returns (uint256);\n}\n\n\n/**\n * @title Mdex LP Contract\n * @notice CToken which wraps Mdex's LP token\n */\ncontract QsMdxLPDelegate is CErc20Delegate {\n    /**\n     * @notice HecoPool address\n     */\n    address public hecoPool;\n\n    /**\n     * @notice MDX token address\n     */\n    address public mdx;\n\n    /**\n     * @notice Pool ID of this LP in HecoPool\n     */\n    uint public pid;\n\n    /**\n     * @notice fMdx address\n     */\n    address public fMdx;\n\n    /**\n     * @notice Comp address\n     */\n    address public comp;\n\n    /**\n     * @notice Container for rewards state\n     * @member balance The balance of fMdx\n     * @member index The last updated fMdx index\n     * @member compBalance The balance of comp\n     * @member compIndex The last updated comp index\n     */\n    struct RewardState {\n        uint balance;\n        uint index;\n        uint compBalance;\n        uint compIndex;\n    }\n\n    /**\n     * @notice The state of LP supply\n     */\n    RewardState public lpSupplyState;\n\n    /**\n     * @notice The index of every LP supplier\n     */\n    mapping(address => uint) public lpSupplierIndex;\n\n    /**\n     * @notice The fMdx amount of every user\n     */\n    mapping(address => uint) public fTokenUserAccrued;\n\n    /**\n     * @notice The index of every comp supplier\n     */\n    mapping(address => uint) public compSupplierIndex;\n\n    /**\n     * @notice The comp amount of every user\n     */\n    mapping(address => uint) public compUserAccrued;\n\n    /**\n     * @notice Delegate interface to become the implementation\n     * @param data The encoded arguments for becoming\n     */\n    function _becomeImplementation(bytes memory data) public {\n        super._becomeImplementation(data);\n\n        (address hecoPoolAddress_, address fMdxAddress_, uint pid_) = abi.decode(data, (address, address, uint));\n        hecoPool = hecoPoolAddress_;\n        mdx = HecoPool(hecoPool).mdx();\n        fMdx = fMdxAddress_;\n\n        comp = Qstroller(address(comptroller)).getCompAddress();\n\n        HecoPool.PoolInfo memory poolInfo = HecoPool(hecoPool).poolInfo(pid_);\n        require(poolInfo.lpToken == underlying, \"mismatch underlying\");\n        pid = pid_;\n\n        // Approve moving our LP into the heco pool contract.\n        EIP20Interface(underlying).approve(hecoPoolAddress_, uint(-1));\n\n        // Approve moving mdx rewards into the fMdx contract.\n        EIP20Interface(mdx).approve(fMdxAddress_, uint(-1));\n    }\n\n    /**\n     * @notice Manually claim rewards by user\n     * @return The amount of fMdx rewards user claims\n     */\n    function claimMdx(address account) public returns (uint) {\n        claimAndStakeMdx();\n\n        updateLPSupplyIndex();\n        updateSupplierIndex(account);\n\n        // Get user's fMdx accrued.\n        uint fTokenBalance = fTokenUserAccrued[account];\n        if (fTokenBalance > 0) {\n            uint err = CErc20(fMdx).redeem(fTokenBalance);\n            require(err == 0, \"redeem fmdx failed\");\n\n            lpSupplyState.balance = sub_(lpSupplyState.balance, fTokenBalance);\n\n            EIP20Interface(mdx).transfer(account, mdxBalance());\n\n            // Clear user's fMdx accrued.\n            fTokenUserAccrued[account] = 0;\n        }\n\n        // Get user's comp accrued.\n        uint compBalance = compUserAccrued[account];\n        if (compBalance > 0) {\n            lpSupplyState.compBalance = sub_(lpSupplyState.compBalance, compBalance);\n\n            EIP20Interface(comp).transfer(account, compBalance);\n\n            // Clear user's comp accrued.\n            compUserAccrued[account] = 0;\n        }\n\n        return fTokenBalance;\n    }\n\n    /*** CErc20 Overrides ***/\n    /**\n     * lp token does not borrow.\n     */\n    function borrow(uint borrowAmount) external returns (uint) {\n        borrowAmount;\n        require(false, \"lptoken prohibits borrowing\");\n    }\n\n    /**\n     * lp token does not repayBorrow.\n     */\n    function repayBorrow(uint repayAmount) external returns (uint) {\n        repayAmount;\n        require(false, \"lptoken prohibits repay\");\n    }\n\n    function repayBorrowBehalf(address borrower, uint repayAmount) external returns (uint) {\n        borrower;repayAmount;\n        require(false, \"lptoken prohibits repayBorrowBehalf\");\n    }\n\n    function liquidateBorrow(address borrower, uint repayAmount, CTokenInterface cTokenCollateral) external returns (uint) {\n        borrower;repayAmount;cTokenCollateral;\n        require(false, \"lptoken prohibits liquidate\");\n    }\n\n    /*** CToken Overrides ***/\n\n    /**\n     * @notice Transfer `tokens` tokens from `src` to `dst` by `spender`\n     * @param spender The address of the account performing the transfer\n     * @param src The address of the source account\n     * @param dst The address of the destination account\n     * @param tokens The number of tokens to transfer\n     * @return Whether or not the transfer succeeded\n     */\n    function transferTokens(address spender, address src, address dst, uint tokens) internal returns (uint) {\n        claimAndStakeMdx();\n\n        updateLPSupplyIndex();\n        updateSupplierIndex(src);\n        updateSupplierIndex(dst);\n\n        return super.transferTokens(spender, src, dst, tokens);\n    }\n\n    /*** Safe Token ***/\n\n    /**\n     * @notice Gets balance of this contract in terms of the underlying\n     * @return The quantity of underlying tokens owned by this contract\n     */\n    function getCashPrior() internal view returns (uint) {\n        HecoPool.UserInfo memory userInfo = HecoPool(hecoPool).userInfo(pid, address(this));\n        return userInfo.amount;\n    }\n\n    /**\n     * @notice Transfer the underlying to this contract and sweep into master chef\n     * @param from Address to transfer funds from\n     * @param amount Amount of underlying to transfer\n     * @return The actual amount that is transferred\n     */\n    function doTransferIn(address from, uint amount) internal returns (uint) {\n        // Perform the EIP-20 transfer in\n        EIP20Interface token = EIP20Interface(underlying);\n        require(token.transferFrom(from, address(this), amount), \"unexpected EIP-20 transfer in return\");\n\n        // Deposit to HecoPool.\n        HecoPool(hecoPool).deposit(pid, amount);\n\n        if (mdxBalance() > 0) {\n            // Send mdx rewards to fMdx.\n            CErc20(fMdx).mint(mdxBalance());\n        }\n\n        harvestComp();\n\n        updateLPSupplyIndex();\n        updateSupplierIndex(from);\n\n        return amount;\n    }\n\n    /**\n     * @notice Transfer the underlying from this contract, after sweeping out of master chef\n     * @param to Address to transfer funds to\n     * @param amount Amount of underlying to transfer\n     */\n    function doTransferOut(address payable to, uint amount) internal {\n        // Withdraw the underlying tokens from HecoPool.\n        HecoPool(hecoPool).withdraw(pid, amount);\n\n        if (mdxBalance() > 0) {\n            // Send mdx rewards to fMdx.\n            CErc20(fMdx).mint(mdxBalance());\n        }\n\n        harvestComp();\n\n        updateLPSupplyIndex();\n        updateSupplierIndex(to);\n\n        EIP20Interface token = EIP20Interface(underlying);\n        require(token.transfer(to, amount), \"unexpected EIP-20 transfer out return\");\n    }\n\n    function seizeInternal(address seizerToken, address liquidator, address borrower, uint seizeTokens) internal returns (uint) {\n        claimAndStakeMdx();\n\n        updateLPSupplyIndex();\n        updateSupplierIndex(liquidator);\n        updateSupplierIndex(borrower);\n\n        address safetyVault = Qstroller(address(comptroller)).qsConfig().safetyVault();\n        updateSupplierIndex(safetyVault);\n\n        return super.seizeInternal(seizerToken, liquidator, borrower, seizeTokens);\n    }\n\n    /*** Internal functions ***/\n\n    function claimAndStakeMdx() internal {\n        // Deposit 0 LP into HecoPool to claim mdx rewards.\n        HecoPool(hecoPool).deposit(pid, 0);\n\n        if (mdxBalance() > 0) {\n            // Send mdx rewards to mdx pool.\n            CErc20(fMdx).mint(mdxBalance());\n        }\n\n        harvestComp();\n    }\n\n    function harvestComp() internal {\n        address[] memory holders = new address[](1);\n        holders[0] = address(this);\n        CToken[] memory cTokens = new CToken[](1);\n        cTokens[0] = CToken(fMdx);\n\n        // MdexLP contract will never borrow assets from Compound.\n        Qstroller(address(comptroller)).claimComp(holders, cTokens, false, true);\n    }\n\n    function updateLPSupplyIndex() internal {\n        uint fTokenBalance = fTokenBalance();\n        uint fTokenAccrued = sub_(fTokenBalance, lpSupplyState.balance);\n        uint supplyTokens = CToken(address(this)).totalSupply();\n        Double memory ratio = supplyTokens > 0 ? fraction(fTokenAccrued, supplyTokens) : Double({mantissa: 0});\n        Double memory index = add_(Double({mantissa: lpSupplyState.index}), ratio);\n\n        uint compBalance = compBalance();\n        uint compAccrued = sub_(compBalance, lpSupplyState.compBalance);\n        Double memory compRatio = supplyTokens > 0 ? fraction(compAccrued, supplyTokens) : Double({mantissa: 0});\n        Double memory compIndex = add_(Double({mantissa: lpSupplyState.compIndex}), compRatio);\n\n        // Update lpSupplyState.\n        lpSupplyState.index = index.mantissa;\n        lpSupplyState.balance = fTokenBalance;\n        lpSupplyState.compIndex = compIndex.mantissa;\n        lpSupplyState.compBalance = compBalance;\n    }\n\n    function updateSupplierIndex(address supplier) internal {\n        Double memory supplyIndex = Double({mantissa: lpSupplyState.index});\n        Double memory supplierIndex = Double({mantissa: lpSupplierIndex[supplier]});\n        Double memory deltaIndex = sub_(supplyIndex, supplierIndex);\n        if (deltaIndex.mantissa > 0) {\n            uint supplierTokens = CToken(address(this)).balanceOf(supplier);\n            uint supplierDelta = mul_(supplierTokens, deltaIndex);\n            fTokenUserAccrued[supplier] = add_(fTokenUserAccrued[supplier], supplierDelta);\n            lpSupplierIndex[supplier] = supplyIndex.mantissa;\n        }\n\n        Double memory compSupplyIndex = Double({mantissa: lpSupplyState.compIndex});\n        Double memory compSupplierIndex_ = Double({mantissa: compSupplierIndex[supplier]});\n        Double memory deltaCompIndex = sub_(compSupplyIndex, compSupplierIndex_);\n        if (deltaCompIndex.mantissa > 0) {\n            uint supplierTokens = CToken(address(this)).balanceOf(supplier);\n            uint supplierDelta = mul_(supplierTokens, deltaCompIndex);\n            compUserAccrued[supplier] = add_(compUserAccrued[supplier], supplierDelta);\n            compSupplierIndex[supplier] = compSupplyIndex.mantissa;\n        }\n    }\n\n    function mdxBalance() internal view returns (uint) {\n        return EIP20Interface(mdx).balanceOf(address(this));\n    }\n\n    function fTokenBalance() internal view returns (uint) {\n        return EIP20Interface(fMdx).balanceOf(address(this));\n    }\n\n    function compBalance() internal view returns (uint) {\n        return EIP20Interface(comp).balanceOf(address(this));\n    }\n}\n",
  "sourcePath": "/Users/huahua/repo/fildaio/compound-protocol/contracts/QsMdxLPDelegate.sol",
  "compiler": {
    "name": "solc",
    "version": "0.5.16+commit.9c3226ce.Emscripten.clang"
  },
  "schemaVersion": "3.4.3",
  "updatedAt": "2021-09-08T05:07:52.532Z",
  "devdoc": {
    "methods": {
      "_acceptAdmin()": {
        "details": "Admin function for pending admin to accept role and update admin",
        "return": "uint 0=success, otherwise a failure (see ErrorReporter.sol for details)"
      },
      "_addReserves(uint256)": {
        "params": {
          "addAmount": "The amount fo underlying token to add as reserves"
        },
        "return": "uint 0=success, otherwise a failure (see ErrorReporter.sol for details)"
      },
      "_becomeImplementation(bytes)": {
        "params": {
          "data": "The encoded arguments for becoming"
        }
      },
      "_reduceReserves(uint256)": {
        "params": {
          "reduceAmount": "Amount of reduction to reserves"
        },
        "return": "uint 0=success, otherwise a failure (see ErrorReporter.sol for details)"
      },
      "_setComptroller(address)": {
        "details": "Admin function to set a new comptroller",
        "return": "uint 0=success, otherwise a failure (see ErrorReporter.sol for details)"
      },
      "_setInterestRateModel(address)": {
        "details": "Admin function to accrue interest and update the interest rate model",
        "params": {
          "newInterestRateModel": "the new interest rate model to use"
        },
        "return": "uint 0=success, otherwise a failure (see ErrorReporter.sol for details)"
      },
      "_setPendingAdmin(address)": {
        "details": "Admin function to begin change of admin. The newPendingAdmin must call `_acceptAdmin` to finalize the transfer.",
        "params": {
          "newPendingAdmin": "New pending admin."
        },
        "return": "uint 0=success, otherwise a failure (see ErrorReporter.sol for details)"
      },
      "_setReserveFactor(uint256)": {
        "details": "Admin function to accrue interest and set a new reserve factor",
        "return": "uint 0=success, otherwise a failure (see ErrorReporter.sol for details)"
      },
      "accrueInterest()": {
        "details": "This calculates interest accrued from the last checkpointed block  up to the current block and writes new checkpoint to storage."
      },
      "allowance(address,address)": {
        "params": {
          "owner": "The address of the account which owns the tokens to be spent",
          "spender": "The address of the account which may transfer tokens"
        },
        "return": "The number of tokens allowed to be spent (-1 means infinite)"
      },
      "approve(address,uint256)": {
        "details": "This will overwrite the approval amount for `spender` and is subject to issues noted [here](https://eips.ethereum.org/EIPS/eip-20#approve)",
        "params": {
          "amount": "The number of tokens that are approved (-1 means infinite)",
          "spender": "The address of the account which may transfer tokens"
        },
        "return": "Whether or not the approval succeeded"
      },
      "balanceOf(address)": {
        "params": {
          "owner": "The address of the account to query"
        },
        "return": "The number of tokens owned by `owner`"
      },
      "balanceOfUnderlying(address)": {
        "details": "This also accrues interest in a transaction",
        "params": {
          "owner": "The address of the account to query"
        },
        "return": "The amount of underlying owned by `owner`"
      },
      "borrowBalanceCurrent(address)": {
        "params": {
          "account": "The address whose balance should be calculated after updating borrowIndex"
        },
        "return": "The calculated balance"
      },
      "borrowBalanceStored(address)": {
        "params": {
          "account": "The address whose balance should be calculated"
        },
        "return": "The calculated balance"
      },
      "borrowRatePerBlock()": {
        "return": "The borrow interest rate per block, scaled by 1e18"
      },
      "claimMdx(address)": {
        "return": "The amount of fMdx rewards user claims"
      },
      "exchangeRateCurrent()": {
        "return": "Calculated exchange rate scaled by 1e18"
      },
      "exchangeRateStored()": {
        "details": "This function does not accrue interest before calculating the exchange rate",
        "return": "Calculated exchange rate scaled by 1e18"
      },
      "getAccountSnapshot(address)": {
        "details": "This is used by comptroller to more efficiently perform liquidity checks.",
        "params": {
          "account": "Address of the account to snapshot"
        },
        "return": "(possible error, token balance, borrow balance, exchange rate mantissa)"
      },
      "getCash()": {
        "return": "The quantity of underlying asset owned by this contract"
      },
      "initialize(address,address,address,uint256,string,string,uint8)": {
        "params": {
          "comptroller_": "The address of the Comptroller",
          "decimals_": "ERC-20 decimal precision of this token",
          "initialExchangeRateMantissa_": "The initial exchange rate, scaled by 1e18",
          "interestRateModel_": "The address of the interest rate model",
          "name_": "ERC-20 name of this token",
          "symbol_": "ERC-20 symbol of this token",
          "underlying_": "The address of the underlying asset"
        }
      },
      "initialize(address,address,uint256,string,string,uint8)": {
        "params": {
          "comptroller_": "The address of the Comptroller",
          "decimals_": "EIP-20 decimal precision of this token",
          "initialExchangeRateMantissa_": "The initial exchange rate, scaled by 1e18",
          "interestRateModel_": "The address of the interest rate model",
          "name_": "EIP-20 name of this token",
          "symbol_": "EIP-20 symbol of this token"
        }
      },
      "mint(uint256)": {
        "details": "Accrues interest whether or not the operation succeeds, unless reverted",
        "params": {
          "mintAmount": "The amount of the underlying asset to supply"
        },
        "return": "uint 0=success, otherwise a failure (see ErrorReporter.sol for details)"
      },
      "redeem(uint256)": {
        "details": "Accrues interest whether or not the operation succeeds, unless reverted",
        "params": {
          "redeemTokens": "The number of cTokens to redeem into underlying"
        },
        "return": "uint 0=success, otherwise a failure (see ErrorReporter.sol for details)"
      },
      "redeemUnderlying(uint256)": {
        "details": "Accrues interest whether or not the operation succeeds, unless reverted",
        "params": {
          "redeemAmount": "The amount of underlying to redeem"
        },
        "return": "uint 0=success, otherwise a failure (see ErrorReporter.sol for details)"
      },
      "seize(address,address,uint256)": {
        "details": "Will fail unless called by another cToken during the process of liquidation. Its absolutely critical to use msg.sender as the borrowed cToken and not a parameter.",
        "params": {
          "borrower": "The account having collateral seized",
          "liquidator": "The account receiving seized collateral",
          "seizeTokens": "The number of cTokens to seize"
        },
        "return": "uint 0=success, otherwise a failure (see ErrorReporter.sol for details)"
      },
      "supplyRatePerBlock()": {
        "return": "The supply interest rate per block, scaled by 1e18"
      },
      "totalBorrowsCurrent()": {
        "return": "The total borrows with interest"
      },
      "transfer(address,uint256)": {
        "params": {
          "amount": "The number of tokens to transfer",
          "dst": "The address of the destination account"
        },
        "return": "Whether or not the transfer succeeded"
      },
      "transferFrom(address,address,uint256)": {
        "params": {
          "amount": "The number of tokens to transfer",
          "dst": "The address of the destination account",
          "src": "The address of the source account"
        },
        "return": "Whether or not the transfer succeeded"
      }
    },
    "title": "Mdex LP Contract"
  },
  "userdoc": {
    "methods": {
      "_acceptAdmin()": {
        "notice": "Accepts transfer of admin rights. msg.sender must be pendingAdmin"
      },
      "_addReserves(uint256)": {
        "notice": "The sender adds to reserves."
      },
      "_becomeImplementation(bytes)": {
        "notice": "Delegate interface to become the implementation"
      },
      "_reduceReserves(uint256)": {
        "notice": "Accrues interest and reduces reserves by transferring to admin"
      },
      "_resignImplementation()": {
        "notice": "Called by the delegator on a delegate to forfeit its responsibility"
      },
      "_setComptroller(address)": {
        "notice": "Sets a new comptroller for the market"
      },
      "_setInterestRateModel(address)": {
        "notice": "accrues interest and updates the interest rate model using _setInterestRateModelFresh"
      },
      "_setPendingAdmin(address)": {
        "notice": "Begins transfer of admin rights. The newPendingAdmin must call `_acceptAdmin` to finalize the transfer."
      },
      "_setReserveFactor(uint256)": {
        "notice": "accrues interest and sets a new reserve factor for the protocol using _setReserveFactorFresh"
      },
      "accrueInterest()": {
        "notice": "Applies accrued interest to total borrows and reserves"
      },
      "allowance(address,address)": {
        "notice": "Get the current allowance from `owner` for `spender`"
      },
      "approve(address,uint256)": {
        "notice": "Approve `spender` to transfer up to `amount` from `src`"
      },
      "balanceOf(address)": {
        "notice": "Get the token balance of the `owner`"
      },
      "balanceOfUnderlying(address)": {
        "notice": "Get the underlying balance of the `owner`"
      },
      "borrow(uint256)": {
        "notice": "lp token does not borrow."
      },
      "borrowBalanceCurrent(address)": {
        "notice": "Accrue interest to updated borrowIndex and then calculate account's borrow balance using the updated borrowIndex"
      },
      "borrowBalanceStored(address)": {
        "notice": "Return the borrow balance of account based on stored data"
      },
      "borrowRatePerBlock()": {
        "notice": "Returns the current per-block borrow interest rate for this cToken"
      },
      "claimMdx(address)": {
        "notice": "Manually claim rewards by user"
      },
      "exchangeRateCurrent()": {
        "notice": "Accrue interest then return the up-to-date exchange rate"
      },
      "exchangeRateStored()": {
        "notice": "Calculates the exchange rate from the underlying to the CToken"
      },
      "getAccountSnapshot(address)": {
        "notice": "Get a snapshot of the account's balances, and the cached exchange rate"
      },
      "getCash()": {
        "notice": "Get cash balance of this cToken in the underlying asset"
      },
      "initialize(address,address,address,uint256,string,string,uint8)": {
        "notice": "Initialize the new money market"
      },
      "initialize(address,address,uint256,string,string,uint8)": {
        "notice": "Initialize the money market"
      },
      "mint(uint256)": {
        "notice": "Sender supplies assets into the market and receives cTokens in exchange"
      },
      "redeem(uint256)": {
        "notice": "Sender redeems cTokens in exchange for the underlying asset"
      },
      "redeemUnderlying(uint256)": {
        "notice": "Sender redeems cTokens in exchange for a specified amount of underlying asset"
      },
      "repayBorrow(uint256)": {
        "notice": "lp token does not repayBorrow."
      },
      "seize(address,address,uint256)": {
        "notice": "Transfers collateral tokens (this market) to the liquidator."
      },
      "supplyRatePerBlock()": {
        "notice": "Returns the current per-block supply interest rate for this cToken"
      },
      "totalBorrowsCurrent()": {
        "notice": "Returns the current total borrows plus accrued interest"
      },
      "transfer(address,uint256)": {
        "notice": "Transfer `amount` tokens from `msg.sender` to `dst`"
      },
      "transferFrom(address,address,uint256)": {
        "notice": "Transfer `amount` tokens from `src` to `dst`"
      }
    },
    "notice": "CToken which wraps Mdex's LP token"
  }
}